{
  "contracts/tokenICO.sol": {
    "ICO": {
      "abi": [
        {
          "inputs": [
            {
              "internalType": "address",
              "name": "token",
              "type": "address"
            }
          ],
          "stateMutability": "nonpayable",
          "type": "constructor"
        },
        {
          "inputs": [
            {
              "internalType": "bool",
              "name": "state",
              "type": "bool"
            }
          ],
          "name": "setICOState",
          "outputs": [],
          "stateMutability": "nonpayable",
          "type": "function"
        },
        {
          "stateMutability": "payable",
          "type": "receive"
        }
      ],
      "evm": {
        "bytecode": {
          "linkReferences": {},
          "object": "608060405234801561001057600080fd5b50604051610a08380380610a08833981810160405281019061003291906100d0565b6203f4804261004191906100f9565b60018190555060015462278d0061005891906100f9565b6002819055506002546212750061006f91906100f9565b600381905550806000806101000a81548173ffffffffffffffffffffffffffffffffffffffff021916908373ffffffffffffffffffffffffffffffffffffffff160217905550506101d1565b6000815190506100ca816101ba565b92915050565b6000602082840312156100e257600080fd5b60006100f0848285016100bb565b91505092915050565b600061010482610181565b915061010f83610181565b9250827fffffffffffffffffffffffffffffffffffffffffffffffffffffffffffffffff038211156101445761014361018b565b5b828201905092915050565b600061015a82610161565b9050919050565b600073ffffffffffffffffffffffffffffffffffffffff82169050919050565b6000819050919050565b7f4e487b7100000000000000000000000000000000000000000000000000000000600052601160045260246000fd5b6101c38161014f565b81146101ce57600080fd5b50565b610828806101e06000396000f3fe6080604052600436106100225760003560e01c8063ee1796c51461044857610443565b366104435760008060009054906101000a900473ffffffffffffffffffffffffffffffffffffffff1673ffffffffffffffffffffffffffffffffffffffff166370a08231306040518263ffffffff1660e01b815260040161008391906105ac565b60206040518083038186803b15801561009b57600080fd5b505afa1580156100af573d6000803e3d6000fd5b505050506040513d601f19601f820116820180604052508101906100d3919061051f565b11610113576040517f08c379a000000000000000000000000000000000000000000000000000000000815260040161010a906105f0565b60405180910390fd5b600060149054906101000a900460ff16610162576040517f08c379a000000000000000000000000000000000000000000000000000000000815260040161015990610610565b60405180910390fd5b60035442106101a6576040517f08c379a000000000000000000000000000000000000000000000000000000000815260040161019d90610610565b60405180910390fd5b60025442106102885760008054906101000a900473ffffffffffffffffffffffffffffffffffffffff1673ffffffffffffffffffffffffffffffffffffffff1663a9059cbb33670de0b6b3a764000034676f05b59d3b2000006102099190610672565b6102139190610641565b6040518363ffffffff1660e01b81526004016102309291906105c7565b602060405180830381600087803b15801561024a57600080fd5b505af115801561025e573d6000803e3d6000fd5b505050506040513d601f19601f8201168201806040525081019061028291906104f6565b50610441565b600154421061036b5760008054906101000a900473ffffffffffffffffffffffffffffffffffffffff1673ffffffffffffffffffffffffffffffffffffffff1663a9059cbb33670de0b6b3a7640000346801236efcbcbb3400006102ec9190610672565b6102f69190610641565b6040518363ffffffff1660e01b81526004016103139291906105c7565b602060405180830381600087803b15801561032d57600080fd5b505af1158015610341573d6000803e3d6000fd5b505050506040513d601f19601f8201168201806040525081019061036591906104f6565b50610441565b60008054906101000a900473ffffffffffffffffffffffffffffffffffffffff1673ffffffffffffffffffffffffffffffffffffffff1663a9059cbb33670de0b6b3a764000034680246ddf979766800006103c69190610672565b6103d09190610641565b6040518363ffffffff1660e01b81526004016103ed9291906105c7565b602060405180830381600087803b15801561040757600080fd5b505af115801561041b573d6000803e3d6000fd5b505050506040513d601f19601f8201168201806040525081019061043f91906104f6565b505b005b600080fd5b34801561045457600080fd5b5061046f600480360381019061046a91906104cd565b610471565b005b80600060146101000a81548160ff02191690831515021790555050565b60008135905061049d816107c4565b92915050565b6000815190506104b2816107c4565b92915050565b6000815190506104c7816107db565b92915050565b6000602082840312156104df57600080fd5b60006104ed8482850161048e565b91505092915050565b60006020828403121561050857600080fd5b6000610516848285016104a3565b91505092915050565b60006020828403121561053157600080fd5b600061053f848285016104b8565b91505092915050565b610551816106cc565b82525050565b6000610564600d83610630565b915061056f82610772565b602082019050919050565b6000610587600a83610630565b91506105928261079b565b602082019050919050565b6105a68161070a565b82525050565b60006020820190506105c16000830184610548565b92915050565b60006040820190506105dc6000830185610548565b6105e9602083018461059d565b9392505050565b6000602082019050818103600083015261060981610557565b9050919050565b600060208201905081810360008301526106298161057a565b9050919050565b600082825260208201905092915050565b600061064c8261070a565b91506106578361070a565b92508261066757610666610743565b5b828204905092915050565b600061067d8261070a565b91506106888361070a565b9250817fffffffffffffffffffffffffffffffffffffffffffffffffffffffffffffffff04831182151516156106c1576106c0610714565b5b828202905092915050565b60006106d7826106ea565b9050919050565b60008115159050919050565b600073ffffffffffffffffffffffffffffffffffffffff82169050919050565b6000819050919050565b7f4e487b7100000000000000000000000000000000000000000000000000000000600052601160045260246000fd5b7f4e487b7100000000000000000000000000000000000000000000000000000000600052601260045260246000fd5b7f4f7574206f6620746f6b656e7300000000000000000000000000000000000000600082015250565b7f49434f20636c6f73656400000000000000000000000000000000000000000000600082015250565b6107cd816106de565b81146107d857600080fd5b50565b6107e48161070a565b81146107ef57600080fd5b5056fea264697066735822122043b897cdd990f69d6c335dfa8d4efc90e52de5a1e6eb20258cfb3b2b2f4af3ea64736f6c63430008040033",
          "opcodes": "PUSH1 0x80 PUSH1 0x40 MSTORE CALLVALUE DUP1 ISZERO PUSH2 0x10 JUMPI PUSH1 0x0 DUP1 REVERT JUMPDEST POP PUSH1 0x40 MLOAD PUSH2 0xA08 CODESIZE SUB DUP1 PUSH2 0xA08 DUP4 CODECOPY DUP2 DUP2 ADD PUSH1 0x40 MSTORE DUP2 ADD SWAP1 PUSH2 0x32 SWAP2 SWAP1 PUSH2 0xD0 JUMP JUMPDEST PUSH3 0x3F480 TIMESTAMP PUSH2 0x41 SWAP2 SWAP1 PUSH2 0xF9 JUMP JUMPDEST PUSH1 0x1 DUP2 SWAP1 SSTORE POP PUSH1 0x1 SLOAD PUSH3 0x278D00 PUSH2 0x58 SWAP2 SWAP1 PUSH2 0xF9 JUMP JUMPDEST PUSH1 0x2 DUP2 SWAP1 SSTORE POP PUSH1 0x2 SLOAD PUSH3 0x127500 PUSH2 0x6F SWAP2 SWAP1 PUSH2 0xF9 JUMP JUMPDEST PUSH1 0x3 DUP2 SWAP1 SSTORE POP DUP1 PUSH1 0x0 DUP1 PUSH2 0x100 EXP DUP2 SLOAD DUP2 PUSH20 0xFFFFFFFFFFFFFFFFFFFFFFFFFFFFFFFFFFFFFFFF MUL NOT AND SWAP1 DUP4 PUSH20 0xFFFFFFFFFFFFFFFFFFFFFFFFFFFFFFFFFFFFFFFF AND MUL OR SWAP1 SSTORE POP POP PUSH2 0x1D1 JUMP JUMPDEST PUSH1 0x0 DUP2 MLOAD SWAP1 POP PUSH2 0xCA DUP2 PUSH2 0x1BA JUMP JUMPDEST SWAP3 SWAP2 POP POP JUMP JUMPDEST PUSH1 0x0 PUSH1 0x20 DUP3 DUP5 SUB SLT ISZERO PUSH2 0xE2 JUMPI PUSH1 0x0 DUP1 REVERT JUMPDEST PUSH1 0x0 PUSH2 0xF0 DUP5 DUP3 DUP6 ADD PUSH2 0xBB JUMP JUMPDEST SWAP2 POP POP SWAP3 SWAP2 POP POP JUMP JUMPDEST PUSH1 0x0 PUSH2 0x104 DUP3 PUSH2 0x181 JUMP JUMPDEST SWAP2 POP PUSH2 0x10F DUP4 PUSH2 0x181 JUMP JUMPDEST SWAP3 POP DUP3 PUSH32 0xFFFFFFFFFFFFFFFFFFFFFFFFFFFFFFFFFFFFFFFFFFFFFFFFFFFFFFFFFFFFFFFF SUB DUP3 GT ISZERO PUSH2 0x144 JUMPI PUSH2 0x143 PUSH2 0x18B JUMP JUMPDEST JUMPDEST DUP3 DUP3 ADD SWAP1 POP SWAP3 SWAP2 POP POP JUMP JUMPDEST PUSH1 0x0 PUSH2 0x15A DUP3 PUSH2 0x161 JUMP JUMPDEST SWAP1 POP SWAP2 SWAP1 POP JUMP JUMPDEST PUSH1 0x0 PUSH20 0xFFFFFFFFFFFFFFFFFFFFFFFFFFFFFFFFFFFFFFFF DUP3 AND SWAP1 POP SWAP2 SWAP1 POP JUMP JUMPDEST PUSH1 0x0 DUP2 SWAP1 POP SWAP2 SWAP1 POP JUMP JUMPDEST PUSH32 0x4E487B7100000000000000000000000000000000000000000000000000000000 PUSH1 0x0 MSTORE PUSH1 0x11 PUSH1 0x4 MSTORE PUSH1 0x24 PUSH1 0x0 REVERT JUMPDEST PUSH2 0x1C3 DUP2 PUSH2 0x14F JUMP JUMPDEST DUP2 EQ PUSH2 0x1CE JUMPI PUSH1 0x0 DUP1 REVERT JUMPDEST POP JUMP JUMPDEST PUSH2 0x828 DUP1 PUSH2 0x1E0 PUSH1 0x0 CODECOPY PUSH1 0x0 RETURN INVALID PUSH1 0x80 PUSH1 0x40 MSTORE PUSH1 0x4 CALLDATASIZE LT PUSH2 0x22 JUMPI PUSH1 0x0 CALLDATALOAD PUSH1 0xE0 SHR DUP1 PUSH4 0xEE1796C5 EQ PUSH2 0x448 JUMPI PUSH2 0x443 JUMP JUMPDEST CALLDATASIZE PUSH2 0x443 JUMPI PUSH1 0x0 DUP1 PUSH1 0x0 SWAP1 SLOAD SWAP1 PUSH2 0x100 EXP SWAP1 DIV PUSH20 0xFFFFFFFFFFFFFFFFFFFFFFFFFFFFFFFFFFFFFFFF AND PUSH20 0xFFFFFFFFFFFFFFFFFFFFFFFFFFFFFFFFFFFFFFFF AND PUSH4 0x70A08231 ADDRESS PUSH1 0x40 MLOAD DUP3 PUSH4 0xFFFFFFFF AND PUSH1 0xE0 SHL DUP2 MSTORE PUSH1 0x4 ADD PUSH2 0x83 SWAP2 SWAP1 PUSH2 0x5AC JUMP JUMPDEST PUSH1 0x20 PUSH1 0x40 MLOAD DUP1 DUP4 SUB DUP2 DUP7 DUP1 EXTCODESIZE ISZERO DUP1 ISZERO PUSH2 0x9B JUMPI PUSH1 0x0 DUP1 REVERT JUMPDEST POP GAS STATICCALL ISZERO DUP1 ISZERO PUSH2 0xAF JUMPI RETURNDATASIZE PUSH1 0x0 DUP1 RETURNDATACOPY RETURNDATASIZE PUSH1 0x0 REVERT JUMPDEST POP POP POP POP PUSH1 0x40 MLOAD RETURNDATASIZE PUSH1 0x1F NOT PUSH1 0x1F DUP3 ADD AND DUP3 ADD DUP1 PUSH1 0x40 MSTORE POP DUP2 ADD SWAP1 PUSH2 0xD3 SWAP2 SWAP1 PUSH2 0x51F JUMP JUMPDEST GT PUSH2 0x113 JUMPI PUSH1 0x40 MLOAD PUSH32 0x8C379A000000000000000000000000000000000000000000000000000000000 DUP2 MSTORE PUSH1 0x4 ADD PUSH2 0x10A SWAP1 PUSH2 0x5F0 JUMP JUMPDEST PUSH1 0x40 MLOAD DUP1 SWAP2 SUB SWAP1 REVERT JUMPDEST PUSH1 0x0 PUSH1 0x14 SWAP1 SLOAD SWAP1 PUSH2 0x100 EXP SWAP1 DIV PUSH1 0xFF AND PUSH2 0x162 JUMPI PUSH1 0x40 MLOAD PUSH32 0x8C379A000000000000000000000000000000000000000000000000000000000 DUP2 MSTORE PUSH1 0x4 ADD PUSH2 0x159 SWAP1 PUSH2 0x610 JUMP JUMPDEST PUSH1 0x40 MLOAD DUP1 SWAP2 SUB SWAP1 REVERT JUMPDEST PUSH1 0x3 SLOAD TIMESTAMP LT PUSH2 0x1A6 JUMPI PUSH1 0x40 MLOAD PUSH32 0x8C379A000000000000000000000000000000000000000000000000000000000 DUP2 MSTORE PUSH1 0x4 ADD PUSH2 0x19D SWAP1 PUSH2 0x610 JUMP JUMPDEST PUSH1 0x40 MLOAD DUP1 SWAP2 SUB SWAP1 REVERT JUMPDEST PUSH1 0x2 SLOAD TIMESTAMP LT PUSH2 0x288 JUMPI PUSH1 0x0 DUP1 SLOAD SWAP1 PUSH2 0x100 EXP SWAP1 DIV PUSH20 0xFFFFFFFFFFFFFFFFFFFFFFFFFFFFFFFFFFFFFFFF AND PUSH20 0xFFFFFFFFFFFFFFFFFFFFFFFFFFFFFFFFFFFFFFFF AND PUSH4 0xA9059CBB CALLER PUSH8 0xDE0B6B3A7640000 CALLVALUE PUSH8 0x6F05B59D3B200000 PUSH2 0x209 SWAP2 SWAP1 PUSH2 0x672 JUMP JUMPDEST PUSH2 0x213 SWAP2 SWAP1 PUSH2 0x641 JUMP JUMPDEST PUSH1 0x40 MLOAD DUP4 PUSH4 0xFFFFFFFF AND PUSH1 0xE0 SHL DUP2 MSTORE PUSH1 0x4 ADD PUSH2 0x230 SWAP3 SWAP2 SWAP1 PUSH2 0x5C7 JUMP JUMPDEST PUSH1 0x20 PUSH1 0x40 MLOAD DUP1 DUP4 SUB DUP2 PUSH1 0x0 DUP8 DUP1 EXTCODESIZE ISZERO DUP1 ISZERO PUSH2 0x24A JUMPI PUSH1 0x0 DUP1 REVERT JUMPDEST POP GAS CALL ISZERO DUP1 ISZERO PUSH2 0x25E JUMPI RETURNDATASIZE PUSH1 0x0 DUP1 RETURNDATACOPY RETURNDATASIZE PUSH1 0x0 REVERT JUMPDEST POP POP POP POP PUSH1 0x40 MLOAD RETURNDATASIZE PUSH1 0x1F NOT PUSH1 0x1F DUP3 ADD AND DUP3 ADD DUP1 PUSH1 0x40 MSTORE POP DUP2 ADD SWAP1 PUSH2 0x282 SWAP2 SWAP1 PUSH2 0x4F6 JUMP JUMPDEST POP PUSH2 0x441 JUMP JUMPDEST PUSH1 0x1 SLOAD TIMESTAMP LT PUSH2 0x36B JUMPI PUSH1 0x0 DUP1 SLOAD SWAP1 PUSH2 0x100 EXP SWAP1 DIV PUSH20 0xFFFFFFFFFFFFFFFFFFFFFFFFFFFFFFFFFFFFFFFF AND PUSH20 0xFFFFFFFFFFFFFFFFFFFFFFFFFFFFFFFFFFFFFFFF AND PUSH4 0xA9059CBB CALLER PUSH8 0xDE0B6B3A7640000 CALLVALUE PUSH9 0x1236EFCBCBB340000 PUSH2 0x2EC SWAP2 SWAP1 PUSH2 0x672 JUMP JUMPDEST PUSH2 0x2F6 SWAP2 SWAP1 PUSH2 0x641 JUMP JUMPDEST PUSH1 0x40 MLOAD DUP4 PUSH4 0xFFFFFFFF AND PUSH1 0xE0 SHL DUP2 MSTORE PUSH1 0x4 ADD PUSH2 0x313 SWAP3 SWAP2 SWAP1 PUSH2 0x5C7 JUMP JUMPDEST PUSH1 0x20 PUSH1 0x40 MLOAD DUP1 DUP4 SUB DUP2 PUSH1 0x0 DUP8 DUP1 EXTCODESIZE ISZERO DUP1 ISZERO PUSH2 0x32D JUMPI PUSH1 0x0 DUP1 REVERT JUMPDEST POP GAS CALL ISZERO DUP1 ISZERO PUSH2 0x341 JUMPI RETURNDATASIZE PUSH1 0x0 DUP1 RETURNDATACOPY RETURNDATASIZE PUSH1 0x0 REVERT JUMPDEST POP POP POP POP PUSH1 0x40 MLOAD RETURNDATASIZE PUSH1 0x1F NOT PUSH1 0x1F DUP3 ADD AND DUP3 ADD DUP1 PUSH1 0x40 MSTORE POP DUP2 ADD SWAP1 PUSH2 0x365 SWAP2 SWAP1 PUSH2 0x4F6 JUMP JUMPDEST POP PUSH2 0x441 JUMP JUMPDEST PUSH1 0x0 DUP1 SLOAD SWAP1 PUSH2 0x100 EXP SWAP1 DIV PUSH20 0xFFFFFFFFFFFFFFFFFFFFFFFFFFFFFFFFFFFFFFFF AND PUSH20 0xFFFFFFFFFFFFFFFFFFFFFFFFFFFFFFFFFFFFFFFF AND PUSH4 0xA9059CBB CALLER PUSH8 0xDE0B6B3A7640000 CALLVALUE PUSH9 0x246DDF97976680000 PUSH2 0x3C6 SWAP2 SWAP1 PUSH2 0x672 JUMP JUMPDEST PUSH2 0x3D0 SWAP2 SWAP1 PUSH2 0x641 JUMP JUMPDEST PUSH1 0x40 MLOAD DUP4 PUSH4 0xFFFFFFFF AND PUSH1 0xE0 SHL DUP2 MSTORE PUSH1 0x4 ADD PUSH2 0x3ED SWAP3 SWAP2 SWAP1 PUSH2 0x5C7 JUMP JUMPDEST PUSH1 0x20 PUSH1 0x40 MLOAD DUP1 DUP4 SUB DUP2 PUSH1 0x0 DUP8 DUP1 EXTCODESIZE ISZERO DUP1 ISZERO PUSH2 0x407 JUMPI PUSH1 0x0 DUP1 REVERT JUMPDEST POP GAS CALL ISZERO DUP1 ISZERO PUSH2 0x41B JUMPI RETURNDATASIZE PUSH1 0x0 DUP1 RETURNDATACOPY RETURNDATASIZE PUSH1 0x0 REVERT JUMPDEST POP POP POP POP PUSH1 0x40 MLOAD RETURNDATASIZE PUSH1 0x1F NOT PUSH1 0x1F DUP3 ADD AND DUP3 ADD DUP1 PUSH1 0x40 MSTORE POP DUP2 ADD SWAP1 PUSH2 0x43F SWAP2 SWAP1 PUSH2 0x4F6 JUMP JUMPDEST POP JUMPDEST STOP JUMPDEST PUSH1 0x0 DUP1 REVERT JUMPDEST CALLVALUE DUP1 ISZERO PUSH2 0x454 JUMPI PUSH1 0x0 DUP1 REVERT JUMPDEST POP PUSH2 0x46F PUSH1 0x4 DUP1 CALLDATASIZE SUB DUP2 ADD SWAP1 PUSH2 0x46A SWAP2 SWAP1 PUSH2 0x4CD JUMP JUMPDEST PUSH2 0x471 JUMP JUMPDEST STOP JUMPDEST DUP1 PUSH1 0x0 PUSH1 0x14 PUSH2 0x100 EXP DUP2 SLOAD DUP2 PUSH1 0xFF MUL NOT AND SWAP1 DUP4 ISZERO ISZERO MUL OR SWAP1 SSTORE POP POP JUMP JUMPDEST PUSH1 0x0 DUP2 CALLDATALOAD SWAP1 POP PUSH2 0x49D DUP2 PUSH2 0x7C4 JUMP JUMPDEST SWAP3 SWAP2 POP POP JUMP JUMPDEST PUSH1 0x0 DUP2 MLOAD SWAP1 POP PUSH2 0x4B2 DUP2 PUSH2 0x7C4 JUMP JUMPDEST SWAP3 SWAP2 POP POP JUMP JUMPDEST PUSH1 0x0 DUP2 MLOAD SWAP1 POP PUSH2 0x4C7 DUP2 PUSH2 0x7DB JUMP JUMPDEST SWAP3 SWAP2 POP POP JUMP JUMPDEST PUSH1 0x0 PUSH1 0x20 DUP3 DUP5 SUB SLT ISZERO PUSH2 0x4DF JUMPI PUSH1 0x0 DUP1 REVERT JUMPDEST PUSH1 0x0 PUSH2 0x4ED DUP5 DUP3 DUP6 ADD PUSH2 0x48E JUMP JUMPDEST SWAP2 POP POP SWAP3 SWAP2 POP POP JUMP JUMPDEST PUSH1 0x0 PUSH1 0x20 DUP3 DUP5 SUB SLT ISZERO PUSH2 0x508 JUMPI PUSH1 0x0 DUP1 REVERT JUMPDEST PUSH1 0x0 PUSH2 0x516 DUP5 DUP3 DUP6 ADD PUSH2 0x4A3 JUMP JUMPDEST SWAP2 POP POP SWAP3 SWAP2 POP POP JUMP JUMPDEST PUSH1 0x0 PUSH1 0x20 DUP3 DUP5 SUB SLT ISZERO PUSH2 0x531 JUMPI PUSH1 0x0 DUP1 REVERT JUMPDEST PUSH1 0x0 PUSH2 0x53F DUP5 DUP3 DUP6 ADD PUSH2 0x4B8 JUMP JUMPDEST SWAP2 POP POP SWAP3 SWAP2 POP POP JUMP JUMPDEST PUSH2 0x551 DUP2 PUSH2 0x6CC JUMP JUMPDEST DUP3 MSTORE POP POP JUMP JUMPDEST PUSH1 0x0 PUSH2 0x564 PUSH1 0xD DUP4 PUSH2 0x630 JUMP JUMPDEST SWAP2 POP PUSH2 0x56F DUP3 PUSH2 0x772 JUMP JUMPDEST PUSH1 0x20 DUP3 ADD SWAP1 POP SWAP2 SWAP1 POP JUMP JUMPDEST PUSH1 0x0 PUSH2 0x587 PUSH1 0xA DUP4 PUSH2 0x630 JUMP JUMPDEST SWAP2 POP PUSH2 0x592 DUP3 PUSH2 0x79B JUMP JUMPDEST PUSH1 0x20 DUP3 ADD SWAP1 POP SWAP2 SWAP1 POP JUMP JUMPDEST PUSH2 0x5A6 DUP2 PUSH2 0x70A JUMP JUMPDEST DUP3 MSTORE POP POP JUMP JUMPDEST PUSH1 0x0 PUSH1 0x20 DUP3 ADD SWAP1 POP PUSH2 0x5C1 PUSH1 0x0 DUP4 ADD DUP5 PUSH2 0x548 JUMP JUMPDEST SWAP3 SWAP2 POP POP JUMP JUMPDEST PUSH1 0x0 PUSH1 0x40 DUP3 ADD SWAP1 POP PUSH2 0x5DC PUSH1 0x0 DUP4 ADD DUP6 PUSH2 0x548 JUMP JUMPDEST PUSH2 0x5E9 PUSH1 0x20 DUP4 ADD DUP5 PUSH2 0x59D JUMP JUMPDEST SWAP4 SWAP3 POP POP POP JUMP JUMPDEST PUSH1 0x0 PUSH1 0x20 DUP3 ADD SWAP1 POP DUP2 DUP2 SUB PUSH1 0x0 DUP4 ADD MSTORE PUSH2 0x609 DUP2 PUSH2 0x557 JUMP JUMPDEST SWAP1 POP SWAP2 SWAP1 POP JUMP JUMPDEST PUSH1 0x0 PUSH1 0x20 DUP3 ADD SWAP1 POP DUP2 DUP2 SUB PUSH1 0x0 DUP4 ADD MSTORE PUSH2 0x629 DUP2 PUSH2 0x57A JUMP JUMPDEST SWAP1 POP SWAP2 SWAP1 POP JUMP JUMPDEST PUSH1 0x0 DUP3 DUP3 MSTORE PUSH1 0x20 DUP3 ADD SWAP1 POP SWAP3 SWAP2 POP POP JUMP JUMPDEST PUSH1 0x0 PUSH2 0x64C DUP3 PUSH2 0x70A JUMP JUMPDEST SWAP2 POP PUSH2 0x657 DUP4 PUSH2 0x70A JUMP JUMPDEST SWAP3 POP DUP3 PUSH2 0x667 JUMPI PUSH2 0x666 PUSH2 0x743 JUMP JUMPDEST JUMPDEST DUP3 DUP3 DIV SWAP1 POP SWAP3 SWAP2 POP POP JUMP JUMPDEST PUSH1 0x0 PUSH2 0x67D DUP3 PUSH2 0x70A JUMP JUMPDEST SWAP2 POP PUSH2 0x688 DUP4 PUSH2 0x70A JUMP JUMPDEST SWAP3 POP DUP2 PUSH32 0xFFFFFFFFFFFFFFFFFFFFFFFFFFFFFFFFFFFFFFFFFFFFFFFFFFFFFFFFFFFFFFFF DIV DUP4 GT DUP3 ISZERO ISZERO AND ISZERO PUSH2 0x6C1 JUMPI PUSH2 0x6C0 PUSH2 0x714 JUMP JUMPDEST JUMPDEST DUP3 DUP3 MUL SWAP1 POP SWAP3 SWAP2 POP POP JUMP JUMPDEST PUSH1 0x0 PUSH2 0x6D7 DUP3 PUSH2 0x6EA JUMP JUMPDEST SWAP1 POP SWAP2 SWAP1 POP JUMP JUMPDEST PUSH1 0x0 DUP2 ISZERO ISZERO SWAP1 POP SWAP2 SWAP1 POP JUMP JUMPDEST PUSH1 0x0 PUSH20 0xFFFFFFFFFFFFFFFFFFFFFFFFFFFFFFFFFFFFFFFF DUP3 AND SWAP1 POP SWAP2 SWAP1 POP JUMP JUMPDEST PUSH1 0x0 DUP2 SWAP1 POP SWAP2 SWAP1 POP JUMP JUMPDEST PUSH32 0x4E487B7100000000000000000000000000000000000000000000000000000000 PUSH1 0x0 MSTORE PUSH1 0x11 PUSH1 0x4 MSTORE PUSH1 0x24 PUSH1 0x0 REVERT JUMPDEST PUSH32 0x4E487B7100000000000000000000000000000000000000000000000000000000 PUSH1 0x0 MSTORE PUSH1 0x12 PUSH1 0x4 MSTORE PUSH1 0x24 PUSH1 0x0 REVERT JUMPDEST PUSH32 0x4F7574206F6620746F6B656E7300000000000000000000000000000000000000 PUSH1 0x0 DUP3 ADD MSTORE POP JUMP JUMPDEST PUSH32 0x49434F20636C6F73656400000000000000000000000000000000000000000000 PUSH1 0x0 DUP3 ADD MSTORE POP JUMP JUMPDEST PUSH2 0x7CD DUP2 PUSH2 0x6DE JUMP JUMPDEST DUP2 EQ PUSH2 0x7D8 JUMPI PUSH1 0x0 DUP1 REVERT JUMPDEST POP JUMP JUMPDEST PUSH2 0x7E4 DUP2 PUSH2 0x70A JUMP JUMPDEST DUP2 EQ PUSH2 0x7EF JUMPI PUSH1 0x0 DUP1 REVERT JUMPDEST POP JUMP INVALID LOG2 PUSH5 0x6970667358 0x22 SLT KECCAK256 NUMBER 0xB8 SWAP8 0xCD 0xD9 SWAP1 0xF6 SWAP14 PUSH13 0x335DFA8D4EFC90E52DE5A1E6EB KECCAK256 0x25 DUP13 0xFB EXTCODESIZE 0x2B 0x2F 0x4A RETURN 0xEA PUSH5 0x736F6C6343 STOP ADDMOD DIV STOP CALLER "
        },
        "methodIdentifiers": {
          "setICOState(bool)": "ee1796c5"
        }
      }
    }
  }
}