{
  "_format": "hh-sol-artifact-1",
  "contractName": "ICO",
  "sourceName": "contracts/tokenICO.sol",
  "abi": [
    {
      "inputs": [
        {
          "internalType": "address",
          "name": "token",
          "type": "address"
        }
      ],
      "stateMutability": "nonpayable",
      "type": "constructor"
    },
    {
      "inputs": [
        {
          "internalType": "bool",
          "name": "state",
          "type": "bool"
        }
      ],
      "name": "setICOState",
      "outputs": [],
      "stateMutability": "nonpayable",
      "type": "function"
    },
    {
      "stateMutability": "payable",
      "type": "receive"
    }
  ],
  "bytecode": "0x608060405234801561001057600080fd5b5060405162000a1338038062000a13833981810160405281019061003491906100e8565b6203f480426100439190610111565b60018190555060015462278d004261005b9190610111565b6100659190610111565b600281905550600254621275004261007d9190610111565b6100879190610111565b600381905550806000806101000a81548173ffffffffffffffffffffffffffffffffffffffff021916908373ffffffffffffffffffffffffffffffffffffffff160217905550506101e9565b6000815190506100e2816101d2565b92915050565b6000602082840312156100fa57600080fd5b6000610108848285016100d3565b91505092915050565b600061011c82610199565b915061012783610199565b9250827fffffffffffffffffffffffffffffffffffffffffffffffffffffffffffffffff0382111561015c5761015b6101a3565b5b828201905092915050565b600061017282610179565b9050919050565b600073ffffffffffffffffffffffffffffffffffffffff82169050919050565b6000819050919050565b7f4e487b7100000000000000000000000000000000000000000000000000000000600052601160045260246000fd5b6101db81610167565b81146101e657600080fd5b50565b61081a80620001f96000396000f3fe6080604052600436106100225760003560e01c8063ee1796c51461043a57610435565b366104355760008060009054906101000a900473ffffffffffffffffffffffffffffffffffffffff1673ffffffffffffffffffffffffffffffffffffffff166370a08231306040518263ffffffff1660e01b8152600401610083919061059e565b60206040518083038186803b15801561009b57600080fd5b505afa1580156100af573d6000803e3d6000fd5b505050506040513d601f19601f820116820180604052508101906100d39190610511565b11610113576040517f08c379a000000000000000000000000000000000000000000000000000000000815260040161010a906105e2565b60405180910390fd5b600060149054906101000a900460ff16610162576040517f08c379a000000000000000000000000000000000000000000000000000000000815260040161015990610602565b60405180910390fd5b60035442106101a6576040517f08c379a000000000000000000000000000000000000000000000000000000000815260040161019d90610602565b60405180910390fd5b60025442106102845760008054906101000a900473ffffffffffffffffffffffffffffffffffffffff1673ffffffffffffffffffffffffffffffffffffffff1663a9059cbb33670de0b6b3a764000034600860ff166102059190610664565b61020f9190610633565b6040518363ffffffff1660e01b815260040161022c9291906105b9565b602060405180830381600087803b15801561024657600080fd5b505af115801561025a573d6000803e3d6000fd5b505050506040513d601f19601f8201168201806040525081019061027e91906104e8565b50610433565b60015442106103625760008054906101000a900473ffffffffffffffffffffffffffffffffffffffff1673ffffffffffffffffffffffffffffffffffffffff1663a9059cbb33670de0b6b3a764000034601560ff166102e39190610664565b6102ed9190610633565b6040518363ffffffff1660e01b815260040161030a9291906105b9565b602060405180830381600087803b15801561032457600080fd5b505af1158015610338573d6000803e3d6000fd5b505050506040513d601f19601f8201168201806040525081019061035c91906104e8565b50610433565b60008054906101000a900473ffffffffffffffffffffffffffffffffffffffff1673ffffffffffffffffffffffffffffffffffffffff1663a9059cbb33670de0b6b3a764000034602a60ff166103b89190610664565b6103c29190610633565b6040518363ffffffff1660e01b81526004016103df9291906105b9565b602060405180830381600087803b1580156103f957600080fd5b505af115801561040d573d6000803e3d6000fd5b505050506040513d601f19601f8201168201806040525081019061043191906104e8565b505b005b600080fd5b34801561044657600080fd5b50610461600480360381019061045c91906104bf565b610463565b005b80600060146101000a81548160ff02191690831515021790555050565b60008135905061048f816107b6565b92915050565b6000815190506104a4816107b6565b92915050565b6000815190506104b9816107cd565b92915050565b6000602082840312156104d157600080fd5b60006104df84828501610480565b91505092915050565b6000602082840312156104fa57600080fd5b600061050884828501610495565b91505092915050565b60006020828403121561052357600080fd5b6000610531848285016104aa565b91505092915050565b610543816106be565b82525050565b6000610556600d83610622565b915061056182610764565b602082019050919050565b6000610579600a83610622565b91506105848261078d565b602082019050919050565b610598816106fc565b82525050565b60006020820190506105b3600083018461053a565b92915050565b60006040820190506105ce600083018561053a565b6105db602083018461058f565b9392505050565b600060208201905081810360008301526105fb81610549565b9050919050565b6000602082019050818103600083015261061b8161056c565b9050919050565b600082825260208201905092915050565b600061063e826106fc565b9150610649836106fc565b92508261065957610658610735565b5b828204905092915050565b600061066f826106fc565b915061067a836106fc565b9250817fffffffffffffffffffffffffffffffffffffffffffffffffffffffffffffffff04831182151516156106b3576106b2610706565b5b828202905092915050565b60006106c9826106dc565b9050919050565b60008115159050919050565b600073ffffffffffffffffffffffffffffffffffffffff82169050919050565b6000819050919050565b7f4e487b7100000000000000000000000000000000000000000000000000000000600052601160045260246000fd5b7f4e487b7100000000000000000000000000000000000000000000000000000000600052601260045260246000fd5b7f4f7574206f6620746f6b656e7300000000000000000000000000000000000000600082015250565b7f49434f20636c6f73656400000000000000000000000000000000000000000000600082015250565b6107bf816106d0565b81146107ca57600080fd5b50565b6107d6816106fc565b81146107e157600080fd5b5056fea26469706673582212203a33aa3f20da8bee3e84735390cb485a279b448a84fa2fc26a3c432489aeea3064736f6c63430008040033",
  "linkReferences": {},
  "deployedLinkReferences": {}
}