{
  "_format": "hh-sol-artifact-1",
  "contractName": "ICO",
  "sourceName": "contracts/tokenICO.sol",
  "abi": [
    {
      "inputs": [
        {
          "internalType": "address",
          "name": "token",
          "type": "address"
        }
      ],
      "stateMutability": "nonpayable",
      "type": "constructor"
    },
    {
      "inputs": [
        {
          "internalType": "bool",
          "name": "state",
          "type": "bool"
        }
      ],
      "name": "setICOState",
      "outputs": [],
      "stateMutability": "nonpayable",
      "type": "function"
    },
    {
      "stateMutability": "payable",
      "type": "receive"
    }
  ],
  "bytecode": "0x608060405234801561001057600080fd5b50604051610a08380380610a08833981810160405281019061003291906100d0565b6203f4804261004191906100f9565b60018190555060015462278d0061005891906100f9565b6002819055506002546212750061006f91906100f9565b600381905550806000806101000a81548173ffffffffffffffffffffffffffffffffffffffff021916908373ffffffffffffffffffffffffffffffffffffffff160217905550506101d1565b6000815190506100ca816101ba565b92915050565b6000602082840312156100e257600080fd5b60006100f0848285016100bb565b91505092915050565b600061010482610181565b915061010f83610181565b9250827fffffffffffffffffffffffffffffffffffffffffffffffffffffffffffffffff038211156101445761014361018b565b5b828201905092915050565b600061015a82610161565b9050919050565b600073ffffffffffffffffffffffffffffffffffffffff82169050919050565b6000819050919050565b7f4e487b7100000000000000000000000000000000000000000000000000000000600052601160045260246000fd5b6101c38161014f565b81146101ce57600080fd5b50565b610828806101e06000396000f3fe6080604052600436106100225760003560e01c8063ee1796c51461044857610443565b366104435760008060009054906101000a900473ffffffffffffffffffffffffffffffffffffffff1673ffffffffffffffffffffffffffffffffffffffff166370a08231306040518263ffffffff1660e01b815260040161008391906105ac565b60206040518083038186803b15801561009b57600080fd5b505afa1580156100af573d6000803e3d6000fd5b505050506040513d601f19601f820116820180604052508101906100d3919061051f565b11610113576040517f08c379a000000000000000000000000000000000000000000000000000000000815260040161010a906105f0565b60405180910390fd5b600060149054906101000a900460ff16610162576040517f08c379a000000000000000000000000000000000000000000000000000000000815260040161015990610610565b60405180910390fd5b60035442106101a6576040517f08c379a000000000000000000000000000000000000000000000000000000000815260040161019d90610610565b60405180910390fd5b60025442106102885760008054906101000a900473ffffffffffffffffffffffffffffffffffffffff1673ffffffffffffffffffffffffffffffffffffffff1663a9059cbb33670de0b6b3a764000034676f05b59d3b2000006102099190610672565b6102139190610641565b6040518363ffffffff1660e01b81526004016102309291906105c7565b602060405180830381600087803b15801561024a57600080fd5b505af115801561025e573d6000803e3d6000fd5b505050506040513d601f19601f8201168201806040525081019061028291906104f6565b50610441565b600154421061036b5760008054906101000a900473ffffffffffffffffffffffffffffffffffffffff1673ffffffffffffffffffffffffffffffffffffffff1663a9059cbb33670de0b6b3a7640000346801236efcbcbb3400006102ec9190610672565b6102f69190610641565b6040518363ffffffff1660e01b81526004016103139291906105c7565b602060405180830381600087803b15801561032d57600080fd5b505af1158015610341573d6000803e3d6000fd5b505050506040513d601f19601f8201168201806040525081019061036591906104f6565b50610441565b60008054906101000a900473ffffffffffffffffffffffffffffffffffffffff1673ffffffffffffffffffffffffffffffffffffffff1663a9059cbb33670de0b6b3a764000034680246ddf979766800006103c69190610672565b6103d09190610641565b6040518363ffffffff1660e01b81526004016103ed9291906105c7565b602060405180830381600087803b15801561040757600080fd5b505af115801561041b573d6000803e3d6000fd5b505050506040513d601f19601f8201168201806040525081019061043f91906104f6565b505b005b600080fd5b34801561045457600080fd5b5061046f600480360381019061046a91906104cd565b610471565b005b80600060146101000a81548160ff02191690831515021790555050565b60008135905061049d816107c4565b92915050565b6000815190506104b2816107c4565b92915050565b6000815190506104c7816107db565b92915050565b6000602082840312156104df57600080fd5b60006104ed8482850161048e565b91505092915050565b60006020828403121561050857600080fd5b6000610516848285016104a3565b91505092915050565b60006020828403121561053157600080fd5b600061053f848285016104b8565b91505092915050565b610551816106cc565b82525050565b6000610564600d83610630565b915061056f82610772565b602082019050919050565b6000610587600a83610630565b91506105928261079b565b602082019050919050565b6105a68161070a565b82525050565b60006020820190506105c16000830184610548565b92915050565b60006040820190506105dc6000830185610548565b6105e9602083018461059d565b9392505050565b6000602082019050818103600083015261060981610557565b9050919050565b600060208201905081810360008301526106298161057a565b9050919050565b600082825260208201905092915050565b600061064c8261070a565b91506106578361070a565b92508261066757610666610743565b5b828204905092915050565b600061067d8261070a565b91506106888361070a565b9250817fffffffffffffffffffffffffffffffffffffffffffffffffffffffffffffffff04831182151516156106c1576106c0610714565b5b828202905092915050565b60006106d7826106ea565b9050919050565b60008115159050919050565b600073ffffffffffffffffffffffffffffffffffffffff82169050919050565b6000819050919050565b7f4e487b7100000000000000000000000000000000000000000000000000000000600052601160045260246000fd5b7f4e487b7100000000000000000000000000000000000000000000000000000000600052601260045260246000fd5b7f4f7574206f6620746f6b656e7300000000000000000000000000000000000000600082015250565b7f49434f20636c6f73656400000000000000000000000000000000000000000000600082015250565b6107cd816106de565b81146107d857600080fd5b50565b6107e48161070a565b81146107ef57600080fd5b5056fea264697066735822122043b897cdd990f69d6c335dfa8d4efc90e52de5a1e6eb20258cfb3b2b2f4af3ea64736f6c63430008040033",
  "linkReferences": {},
  "deployedLinkReferences": {}
}