{
  "_format": "hh-sol-artifact-1",
  "contractName": "TTT",
  "sourceName": "contracts/tokenICO.sol",
  "abi": [
    {
      "inputs": [],
      "stateMutability": "nonpayable",
      "type": "constructor"
    },
    {
      "anonymous": false,
      "inputs": [
        {
          "indexed": true,
          "internalType": "address",
          "name": "owner",
          "type": "address"
        },
        {
          "indexed": true,
          "internalType": "address",
          "name": "spender",
          "type": "address"
        },
        {
          "indexed": false,
          "internalType": "uint256",
          "name": "value",
          "type": "uint256"
        }
      ],
      "name": "Approval",
      "type": "event"
    },
    {
      "anonymous": false,
      "inputs": [
        {
          "indexed": true,
          "internalType": "address",
          "name": "previousOwner",
          "type": "address"
        },
        {
          "indexed": true,
          "internalType": "address",
          "name": "newOwner",
          "type": "address"
        }
      ],
      "name": "OwnershipTransferred",
      "type": "event"
    },
    {
      "anonymous": false,
      "inputs": [
        {
          "indexed": true,
          "internalType": "address",
          "name": "from",
          "type": "address"
        },
        {
          "indexed": true,
          "internalType": "address",
          "name": "to",
          "type": "address"
        },
        {
          "indexed": false,
          "internalType": "uint256",
          "name": "value",
          "type": "uint256"
        }
      ],
      "name": "Transfer",
      "type": "event"
    },
    {
      "inputs": [],
      "name": "ICOActive",
      "outputs": [
        {
          "internalType": "bool",
          "name": "",
          "type": "bool"
        }
      ],
      "stateMutability": "view",
      "type": "function"
    },
    {
      "inputs": [],
      "name": "ICOAddress",
      "outputs": [
        {
          "internalType": "address",
          "name": "",
          "type": "address"
        }
      ],
      "stateMutability": "view",
      "type": "function"
    },
    {
      "inputs": [
        {
          "internalType": "address",
          "name": "owner",
          "type": "address"
        },
        {
          "internalType": "address",
          "name": "spender",
          "type": "address"
        }
      ],
      "name": "allowance",
      "outputs": [
        {
          "internalType": "uint256",
          "name": "",
          "type": "uint256"
        }
      ],
      "stateMutability": "view",
      "type": "function"
    },
    {
      "inputs": [
        {
          "internalType": "address",
          "name": "spender",
          "type": "address"
        },
        {
          "internalType": "uint256",
          "name": "amount",
          "type": "uint256"
        }
      ],
      "name": "approve",
      "outputs": [
        {
          "internalType": "bool",
          "name": "",
          "type": "bool"
        }
      ],
      "stateMutability": "nonpayable",
      "type": "function"
    },
    {
      "inputs": [
        {
          "internalType": "address",
          "name": "account",
          "type": "address"
        }
      ],
      "name": "balanceOf",
      "outputs": [
        {
          "internalType": "uint256",
          "name": "",
          "type": "uint256"
        }
      ],
      "stateMutability": "view",
      "type": "function"
    },
    {
      "inputs": [
        {
          "internalType": "uint256",
          "name": "supply",
          "type": "uint256"
        }
      ],
      "name": "createICO",
      "outputs": [],
      "stateMutability": "nonpayable",
      "type": "function"
    },
    {
      "inputs": [],
      "name": "decimals",
      "outputs": [
        {
          "internalType": "uint8",
          "name": "",
          "type": "uint8"
        }
      ],
      "stateMutability": "view",
      "type": "function"
    },
    {
      "inputs": [
        {
          "internalType": "address",
          "name": "spender",
          "type": "address"
        },
        {
          "internalType": "uint256",
          "name": "subtractedValue",
          "type": "uint256"
        }
      ],
      "name": "decreaseAllowance",
      "outputs": [
        {
          "internalType": "bool",
          "name": "",
          "type": "bool"
        }
      ],
      "stateMutability": "nonpayable",
      "type": "function"
    },
    {
      "inputs": [
        {
          "internalType": "address",
          "name": "spender",
          "type": "address"
        },
        {
          "internalType": "uint256",
          "name": "addedValue",
          "type": "uint256"
        }
      ],
      "name": "increaseAllowance",
      "outputs": [
        {
          "internalType": "bool",
          "name": "",
          "type": "bool"
        }
      ],
      "stateMutability": "nonpayable",
      "type": "function"
    },
    {
      "inputs": [],
      "name": "name",
      "outputs": [
        {
          "internalType": "string",
          "name": "",
          "type": "string"
        }
      ],
      "stateMutability": "view",
      "type": "function"
    },
    {
      "inputs": [],
      "name": "owner",
      "outputs": [
        {
          "internalType": "address",
          "name": "",
          "type": "address"
        }
      ],
      "stateMutability": "view",
      "type": "function"
    },
    {
      "inputs": [],
      "name": "renounceOwnership",
      "outputs": [],
      "stateMutability": "nonpayable",
      "type": "function"
    },
    {
      "inputs": [
        {
          "internalType": "bool",
          "name": "state",
          "type": "bool"
        }
      ],
      "name": "setICOState",
      "outputs": [],
      "stateMutability": "nonpayable",
      "type": "function"
    },
    {
      "inputs": [],
      "name": "symbol",
      "outputs": [
        {
          "internalType": "string",
          "name": "",
          "type": "string"
        }
      ],
      "stateMutability": "view",
      "type": "function"
    },
    {
      "inputs": [],
      "name": "totalSupply",
      "outputs": [
        {
          "internalType": "uint256",
          "name": "",
          "type": "uint256"
        }
      ],
      "stateMutability": "view",
      "type": "function"
    },
    {
      "inputs": [
        {
          "internalType": "address",
          "name": "recipient",
          "type": "address"
        },
        {
          "internalType": "uint256",
          "name": "amount",
          "type": "uint256"
        }
      ],
      "name": "transfer",
      "outputs": [
        {
          "internalType": "bool",
          "name": "",
          "type": "bool"
        }
      ],
      "stateMutability": "nonpayable",
      "type": "function"
    },
    {
      "inputs": [
        {
          "internalType": "address",
          "name": "sender",
          "type": "address"
        },
        {
          "internalType": "address",
          "name": "recipient",
          "type": "address"
        },
        {
          "internalType": "uint256",
          "name": "amount",
          "type": "uint256"
        }
      ],
      "name": "transferFrom",
      "outputs": [
        {
          "internalType": "bool",
          "name": "",
          "type": "bool"
        }
      ],
      "stateMutability": "nonpayable",
      "type": "function"
    },
    {
      "inputs": [
        {
          "internalType": "address",
          "name": "newOwner",
          "type": "address"
        }
      ],
      "name": "transferOwnership",
      "outputs": [],
      "stateMutability": "nonpayable",
      "type": "function"
    },
    {
      "inputs": [
        {
          "internalType": "address",
          "name": "member",
          "type": "address"
        }
      ],
      "name": "whitelist",
      "outputs": [],
      "stateMutability": "nonpayable",
      "type": "function"
    }
  ],
  "bytecode": "0x60806040523480156200001157600080fd5b506040518060400160405280601581526020017f54696d656c6f636b5472616e73666572546f6b656e00000000000000000000008152506040518060400160405280600381526020017f5454540000000000000000000000000000000000000000000000000000000000815250816003908051906020019062000096929190620003e7565b508060049080519060200190620000af929190620003e7565b505050620000d2620000c66200018d60201b60201c565b6200019560201b60201c565b62000120620000e66200018d60201b60201c565b620000f66200025b60201b60201c565b600a620001049190620005d7565b620f424062000114919062000714565b6200026460201b60201c565b600160066000620001366200018d60201b60201c565b73ffffffffffffffffffffffffffffffffffffffff1673ffffffffffffffffffffffffffffffffffffffff16815260200190815260200160002060006101000a81548160ff02191690831515021790555062000856565b600033905090565b6000600560009054906101000a900473ffffffffffffffffffffffffffffffffffffffff16905081600560006101000a81548173ffffffffffffffffffffffffffffffffffffffff021916908373ffffffffffffffffffffffffffffffffffffffff1602179055508173ffffffffffffffffffffffffffffffffffffffff168173ffffffffffffffffffffffffffffffffffffffff167f8be0079c531659141344cd1fd0a4f28419497f9722a3daafe3b4186f6b6457e060405160405180910390a35050565b60006012905090565b600073ffffffffffffffffffffffffffffffffffffffff168273ffffffffffffffffffffffffffffffffffffffff161415620002d7576040517f08c379a0000000000000000000000000000000000000000000000000000000008152600401620002ce90620004cf565b60405180910390fd5b620002eb60008383620003dd60201b60201c565b8060026000828254620002ff91906200051f565b92505081905550806000808473ffffffffffffffffffffffffffffffffffffffff1673ffffffffffffffffffffffffffffffffffffffff16815260200190815260200160002060008282546200035691906200051f565b925050819055508173ffffffffffffffffffffffffffffffffffffffff16600073ffffffffffffffffffffffffffffffffffffffff167fddf252ad1be2c89b69c2b068fc378daa952ba7f163c4a11628f55a4df523b3ef83604051620003bd9190620004f1565b60405180910390a3620003d960008383620003e260201b60201c565b5050565b505050565b505050565b828054620003f5906200078c565b90600052602060002090601f01602090048101928262000419576000855562000465565b82601f106200043457805160ff191683800117855562000465565b8280016001018555821562000465579182015b828111156200046457825182559160200191906001019062000447565b5b50905062000474919062000478565b5090565b5b808211156200049357600081600090555060010162000479565b5090565b6000620004a6601f836200050e565b9150620004b3826200082d565b602082019050919050565b620004c98162000775565b82525050565b60006020820190508181036000830152620004ea8162000497565b9050919050565b6000602082019050620005086000830184620004be565b92915050565b600082825260208201905092915050565b60006200052c8262000775565b9150620005398362000775565b9250827fffffffffffffffffffffffffffffffffffffffffffffffffffffffffffffffff03821115620005715762000570620007c2565b5b828201905092915050565b6000808291508390505b6001851115620005ce57808604811115620005a657620005a5620007c2565b5b6001851615620005b65780820291505b8081029050620005c68562000820565b945062000586565b94509492505050565b6000620005e48262000775565b9150620005f1836200077f565b9250620006207fffffffffffffffffffffffffffffffffffffffffffffffffffffffffffffffff848462000628565b905092915050565b6000826200063a57600190506200070d565b816200064a57600090506200070d565b81600181146200066357600281146200066e57620006a4565b60019150506200070d565b60ff841115620006835762000682620007c2565b5b8360020a9150848211156200069d576200069c620007c2565b5b506200070d565b5060208310610133831016604e8410600b8410161715620006de5782820a905083811115620006d857620006d7620007c2565b5b6200070d565b620006ed84848460016200057c565b92509050818404811115620007075762000706620007c2565b5b81810290505b9392505050565b6000620007218262000775565b91506200072e8362000775565b9250817fffffffffffffffffffffffffffffffffffffffffffffffffffffffffffffffff04831182151516156200076a5762000769620007c2565b5b828202905092915050565b6000819050919050565b600060ff82169050919050565b60006002820490506001821680620007a557607f821691505b60208210811415620007bc57620007bb620007f1565b5b50919050565b7f4e487b7100000000000000000000000000000000000000000000000000000000600052601160045260246000fd5b7f4e487b7100000000000000000000000000000000000000000000000000000000600052602260045260246000fd5b60008160011c9050919050565b7f45524332303a206d696e7420746f20746865207a65726f206164647265737300600082015250565b6129cc80620008666000396000f3fe60806040523480156200001157600080fd5b50600436106200013c5760003560e01c80638da5cb5b11620000bd578063d2f1f189116200007b578063d2f1f189146200037b578063dd62ed3e146200039d578063ee1796c514620003d3578063f098efb314620003f3578063f2fde38b1462000415576200013c565b80638da5cb5b14620002ab57806395d89b4114620002cd5780639b19251a14620002ef578063a457c2d7146200030f578063a9059cbb1462000345576200013c565b806323b872dd116200010b57806323b872dd14620001db578063313ce567146200021157806339509351146200023357806370a082311462000269578063715018a6146200029f576200013c565b806306fdde031462000141578063095ea7b314620001635780630c5a3da7146200019957806318160ddd14620001b9575b600080fd5b6200014b62000435565b6040516200015a9190620018f3565b60405180910390f35b6200018160048036038101906200017b919062001615565b620004cf565b604051620001909190620018d6565b60405180910390f35b620001b76004803603810190620001b1919062001682565b620004f1565b005b620001c3620006c3565b604051620001d2919062001a6b565b60405180910390f35b620001f96004803603810190620001f39190620015bf565b620006cd565b604051620002089190620018d6565b60405180910390f35b6200021b620007d0565b6040516200022a919062001a88565b60405180910390f35b6200025160048036038101906200024b919062001615565b620007d9565b604051620002609190620018d6565b60405180910390f35b62000287600480360381019062000281919062001552565b6200088d565b60405162000296919062001a6b565b60405180910390f35b620002a9620008d5565b005b620002b562000966565b604051620002c49190620018b9565b60405180910390f35b620002d762000990565b604051620002e69190620018f3565b60405180910390f35b6200030d600480360381019062000307919062001552565b62000a2a565b005b6200032d600480360381019062000327919062001615565b62000b08565b6040516200033c9190620018d6565b60405180910390f35b6200036360048036038101906200035d919062001615565b62000bfc565b604051620003729190620018d6565b60405180910390f35b6200038562000ccd565b604051620003949190620018b9565b60405180910390f35b620003bb6004803603810190620003b591906200157e565b62000cf3565b604051620003ca919062001a6b565b60405180910390f35b620003f16004803603810190620003eb919062001656565b62000d7a565b005b620003fd62000eab565b6040516200040c9190620018d6565b60405180910390f35b6200043360048036038101906200042d919062001552565b62000ebe565b005b606060038054620004469062001bab565b80601f0160208091040260200160405190810160405280929190818152602001828054620004749062001bab565b8015620004c55780601f106200049957610100808354040283529160200191620004c5565b820191906000526020600020905b815481529060010190602001808311620004a757829003601f168201915b5050505050905090565b6000620004e7620004df62000fc2565b848462000fca565b6001905092915050565b306040516200050090620014ff565b6200050c9190620018b9565b604051809103906000f08015801562000529573d6000803e3d6000fd5b50600760006101000a81548173ffffffffffffffffffffffffffffffffffffffff021916908373ffffffffffffffffffffffffffffffffffffffff1602179055506001600760146101000a81548160ff021916908315150217905550600760009054906101000a900473ffffffffffffffffffffffffffffffffffffffff1673ffffffffffffffffffffffffffffffffffffffff1663ee1796c560016040518263ffffffff1660e01b8152600401620005e39190620018d6565b600060405180830381600087803b158015620005fe57600080fd5b505af115801562000613573d6000803e3d6000fd5b5050505062000645600760009054906101000a900473ffffffffffffffffffffffffffffffffffffffff168262000bfc565b50600160066000600760009054906101000a900473ffffffffffffffffffffffffffffffffffffffff1673ffffffffffffffffffffffffffffffffffffffff1673ffffffffffffffffffffffffffffffffffffffff16815260200190815260200160002060006101000a81548160ff02191690831515021790555050565b6000600254905090565b6000620006dc8484846200119d565b6000600160008673ffffffffffffffffffffffffffffffffffffffff1673ffffffffffffffffffffffffffffffffffffffff16815260200190815260200160002060006200072962000fc2565b73ffffffffffffffffffffffffffffffffffffffff1673ffffffffffffffffffffffffffffffffffffffff16815260200190815260200160002054905082811015620007ac576040517f08c379a0000000000000000000000000000000000000000000000000000000008152600401620007a3906200199f565b60405180910390fd5b620007c485620007bb62000fc2565b85840362000fca565b60019150509392505050565b60006012905090565b600062000883620007e962000fc2565b848460016000620007f962000fc2565b73ffffffffffffffffffffffffffffffffffffffff1673ffffffffffffffffffffffffffffffffffffffff16815260200190815260200160002060008873ffffffffffffffffffffffffffffffffffffffff1673ffffffffffffffffffffffffffffffffffffffff168152602001908152602001600020546200087d919062001ac1565b62000fca565b6001905092915050565b60008060008373ffffffffffffffffffffffffffffffffffffffff1673ffffffffffffffffffffffffffffffffffffffff168152602001908152602001600020549050919050565b620008df62000fc2565b73ffffffffffffffffffffffffffffffffffffffff16620008ff62000966565b73ffffffffffffffffffffffffffffffffffffffff161462000958576040517f08c379a00000000000000000000000000000000000000000000000000000000081526004016200094f90620019c1565b60405180910390fd5b6200096460006200142f565b565b6000600560009054906101000a900473ffffffffffffffffffffffffffffffffffffffff16905090565b606060048054620009a19062001bab565b80601f0160208091040260200160405190810160405280929190818152602001828054620009cf9062001bab565b801562000a205780601f10620009f45761010080835404028352916020019162000a20565b820191906000526020600020905b81548152906001019060200180831162000a0257829003601f168201915b5050505050905090565b62000a3462000fc2565b73ffffffffffffffffffffffffffffffffffffffff1662000a5462000966565b73ffffffffffffffffffffffffffffffffffffffff161462000aad576040517f08c379a000000000000000000000000000000000000000000000000000000000815260040162000aa490620019c1565b60405180910390fd5b6001600660008373ffffffffffffffffffffffffffffffffffffffff1673ffffffffffffffffffffffffffffffffffffffff16815260200190815260200160002060006101000a81548160ff02191690831515021790555050565b6000806001600062000b1962000fc2565b73ffffffffffffffffffffffffffffffffffffffff1673ffffffffffffffffffffffffffffffffffffffff16815260200190815260200160002060008573ffffffffffffffffffffffffffffffffffffffff1673ffffffffffffffffffffffffffffffffffffffff1681526020019081526020016000205490508281101562000bd9576040517f08c379a000000000000000000000000000000000000000000000000000000000815260040162000bd09062001a49565b60405180910390fd5b62000bf162000be762000fc2565b8585840362000fca565b600191505092915050565b6000600760149054906101000a900460ff161562000cad576006600062000c2262000fc2565b73ffffffffffffffffffffffffffffffffffffffff1673ffffffffffffffffffffffffffffffffffffffff16815260200190815260200160002060009054906101000a900460ff1662000cac576040517f08c379a000000000000000000000000000000000000000000000000000000000815260040162000ca39062001a27565b60405180910390fd5b5b62000cc362000cbb62000fc2565b84846200119d565b6001905092915050565b600760009054906101000a900473ffffffffffffffffffffffffffffffffffffffff1681565b6000600160008473ffffffffffffffffffffffffffffffffffffffff1673ffffffffffffffffffffffffffffffffffffffff16815260200190815260200160002060008373ffffffffffffffffffffffffffffffffffffffff1673ffffffffffffffffffffffffffffffffffffffff16815260200190815260200160002054905092915050565b62000d8462000fc2565b73ffffffffffffffffffffffffffffffffffffffff1662000da462000966565b73ffffffffffffffffffffffffffffffffffffffff161462000dfd576040517f08c379a000000000000000000000000000000000000000000000000000000000815260040162000df490620019c1565b60405180910390fd5b600760009054906101000a900473ffffffffffffffffffffffffffffffffffffffff1673ffffffffffffffffffffffffffffffffffffffff1663ee1796c5826040518263ffffffff1660e01b815260040162000e5a9190620018d6565b600060405180830381600087803b15801562000e7557600080fd5b505af115801562000e8a573d6000803e3d6000fd5b5050505080600760146101000a81548160ff02191690831515021790555050565b600760149054906101000a900460ff1681565b62000ec862000fc2565b73ffffffffffffffffffffffffffffffffffffffff1662000ee862000966565b73ffffffffffffffffffffffffffffffffffffffff161462000f41576040517f08c379a000000000000000000000000000000000000000000000000000000000815260040162000f3890620019c1565b60405180910390fd5b600073ffffffffffffffffffffffffffffffffffffffff168173ffffffffffffffffffffffffffffffffffffffff16141562000fb4576040517f08c379a000000000000000000000000000000000000000000000000000000000815260040162000fab9062001939565b60405180910390fd5b62000fbf816200142f565b50565b600033905090565b600073ffffffffffffffffffffffffffffffffffffffff168373ffffffffffffffffffffffffffffffffffffffff1614156200103d576040517f08c379a0000000000000000000000000000000000000000000000000000000008152600401620010349062001a05565b60405180910390fd5b600073ffffffffffffffffffffffffffffffffffffffff168273ffffffffffffffffffffffffffffffffffffffff161415620010b0576040517f08c379a0000000000000000000000000000000000000000000000000000000008152600401620010a7906200195b565b60405180910390fd5b80600160008573ffffffffffffffffffffffffffffffffffffffff1673ffffffffffffffffffffffffffffffffffffffff16815260200190815260200160002060008473ffffffffffffffffffffffffffffffffffffffff1673ffffffffffffffffffffffffffffffffffffffff168152602001908152602001600020819055508173ffffffffffffffffffffffffffffffffffffffff168373ffffffffffffffffffffffffffffffffffffffff167f8c5be1e5ebec7d5bd14f71427d1e84f3dd0314c0f7b2291e5b200ac8c7c3b9258360405162001190919062001a6b565b60405180910390a3505050565b600073ffffffffffffffffffffffffffffffffffffffff168373ffffffffffffffffffffffffffffffffffffffff16141562001210576040517f08c379a00000000000000000000000000000000000000000000000000000000081526004016200120790620019e3565b60405180910390fd5b600073ffffffffffffffffffffffffffffffffffffffff168273ffffffffffffffffffffffffffffffffffffffff16141562001283576040517f08c379a00000000000000000000000000000000000000000000000000000000081526004016200127a9062001917565b60405180910390fd5b62001290838383620014f5565b60008060008573ffffffffffffffffffffffffffffffffffffffff1673ffffffffffffffffffffffffffffffffffffffff1681526020019081526020016000205490508181101562001319576040517f08c379a000000000000000000000000000000000000000000000000000000000815260040162001310906200197d565b60405180910390fd5b8181036000808673ffffffffffffffffffffffffffffffffffffffff1673ffffffffffffffffffffffffffffffffffffffff16815260200190815260200160002081905550816000808573ffffffffffffffffffffffffffffffffffffffff1673ffffffffffffffffffffffffffffffffffffffff1681526020019081526020016000206000828254620013ae919062001ac1565b925050819055508273ffffffffffffffffffffffffffffffffffffffff168473ffffffffffffffffffffffffffffffffffffffff167fddf252ad1be2c89b69c2b068fc378daa952ba7f163c4a11628f55a4df523b3ef8460405162001414919062001a6b565b60405180910390a362001429848484620014fa565b50505050565b6000600560009054906101000a900473ffffffffffffffffffffffffffffffffffffffff16905081600560006101000a81548173ffffffffffffffffffffffffffffffffffffffff021916908373ffffffffffffffffffffffffffffffffffffffff1602179055508173ffffffffffffffffffffffffffffffffffffffff168173ffffffffffffffffffffffffffffffffffffffff167f8be0079c531659141344cd1fd0a4f28419497f9722a3daafe3b4186f6b6457e060405160405180910390a35050565b505050565b505050565b610a088062001f8f83390190565b6000813590506200151e8162001f40565b92915050565b600081359050620015358162001f5a565b92915050565b6000813590506200154c8162001f74565b92915050565b6000602082840312156200156557600080fd5b600062001575848285016200150d565b91505092915050565b600080604083850312156200159257600080fd5b6000620015a2858286016200150d565b9250506020620015b5858286016200150d565b9150509250929050565b600080600060608486031215620015d557600080fd5b6000620015e5868287016200150d565b9350506020620015f8868287016200150d565b92505060406200160b868287016200153b565b9150509250925092565b600080604083850312156200162957600080fd5b600062001639858286016200150d565b92505060206200164c858286016200153b565b9150509250929050565b6000602082840312156200166957600080fd5b6000620016798482850162001524565b91505092915050565b6000602082840312156200169557600080fd5b6000620016a5848285016200153b565b91505092915050565b620016b98162001b1e565b82525050565b620016ca8162001b32565b82525050565b6000620016dd8262001aa5565b620016e9818562001ab0565b9350620016fb81856020860162001b75565b620017068162001c3f565b840191505092915050565b60006200172060238362001ab0565b91506200172d8262001c50565b604082019050919050565b60006200174760268362001ab0565b9150620017548262001c9f565b604082019050919050565b60006200176e60228362001ab0565b91506200177b8262001cee565b604082019050919050565b60006200179560268362001ab0565b9150620017a28262001d3d565b604082019050919050565b6000620017bc60288362001ab0565b9150620017c98262001d8c565b604082019050919050565b6000620017e360208362001ab0565b9150620017f08262001ddb565b602082019050919050565b60006200180a60258362001ab0565b9150620018178262001e04565b604082019050919050565b60006200183160248362001ab0565b91506200183e8262001e53565b604082019050919050565b600062001858602f8362001ab0565b9150620018658262001ea2565b604082019050919050565b60006200187f60258362001ab0565b91506200188c8262001ef1565b604082019050919050565b620018a28162001b5e565b82525050565b620018b38162001b68565b82525050565b6000602082019050620018d06000830184620016ae565b92915050565b6000602082019050620018ed6000830184620016bf565b92915050565b600060208201905081810360008301526200190f8184620016d0565b905092915050565b60006020820190508181036000830152620019328162001711565b9050919050565b60006020820190508181036000830152620019548162001738565b9050919050565b6000602082019050818103600083015262001976816200175f565b9050919050565b60006020820190508181036000830152620019988162001786565b9050919050565b60006020820190508181036000830152620019ba81620017ad565b9050919050565b60006020820190508181036000830152620019dc81620017d4565b9050919050565b60006020820190508181036000830152620019fe81620017fb565b9050919050565b6000602082019050818103600083015262001a208162001822565b9050919050565b6000602082019050818103600083015262001a428162001849565b9050919050565b6000602082019050818103600083015262001a648162001870565b9050919050565b600060208201905062001a82600083018462001897565b92915050565b600060208201905062001a9f6000830184620018a8565b92915050565b600081519050919050565b600082825260208201905092915050565b600062001ace8262001b5e565b915062001adb8362001b5e565b9250827fffffffffffffffffffffffffffffffffffffffffffffffffffffffffffffffff0382111562001b135762001b1262001be1565b5b828201905092915050565b600062001b2b8262001b3e565b9050919050565b60008115159050919050565b600073ffffffffffffffffffffffffffffffffffffffff82169050919050565b6000819050919050565b600060ff82169050919050565b60005b8381101562001b9557808201518184015260208101905062001b78565b8381111562001ba5576000848401525b50505050565b6000600282049050600182168062001bc457607f821691505b6020821081141562001bdb5762001bda62001c10565b5b50919050565b7f4e487b7100000000000000000000000000000000000000000000000000000000600052601160045260246000fd5b7f4e487b7100000000000000000000000000000000000000000000000000000000600052602260045260246000fd5b6000601f19601f8301169050919050565b7f45524332303a207472616e7366657220746f20746865207a65726f206164647260008201527f6573730000000000000000000000000000000000000000000000000000000000602082015250565b7f4f776e61626c653a206e6577206f776e657220697320746865207a65726f206160008201527f6464726573730000000000000000000000000000000000000000000000000000602082015250565b7f45524332303a20617070726f766520746f20746865207a65726f20616464726560008201527f7373000000000000000000000000000000000000000000000000000000000000602082015250565b7f45524332303a207472616e7366657220616d6f756e742065786365656473206260008201527f616c616e63650000000000000000000000000000000000000000000000000000602082015250565b7f45524332303a207472616e7366657220616d6f756e742065786365656473206160008201527f6c6c6f77616e6365000000000000000000000000000000000000000000000000602082015250565b7f4f776e61626c653a2063616c6c6572206973206e6f7420746865206f776e6572600082015250565b7f45524332303a207472616e736665722066726f6d20746865207a65726f20616460008201527f6472657373000000000000000000000000000000000000000000000000000000602082015250565b7f45524332303a20617070726f76652066726f6d20746865207a65726f2061646460008201527f7265737300000000000000000000000000000000000000000000000000000000602082015250565b7f4e6f7420617574686f72697a656420746f207472616e7366657220756e74696c60008201527f2074686520656e64206f662049434f0000000000000000000000000000000000602082015250565b7f45524332303a2064656372656173656420616c6c6f77616e63652062656c6f7760008201527f207a65726f000000000000000000000000000000000000000000000000000000602082015250565b62001f4b8162001b1e565b811462001f5757600080fd5b50565b62001f658162001b32565b811462001f7157600080fd5b50565b62001f7f8162001b5e565b811462001f8b57600080fd5b5056fe608060405234801561001057600080fd5b50604051610a08380380610a08833981810160405281019061003291906100d0565b6203f4804261004191906100f9565b60018190555060015462278d0061005891906100f9565b6002819055506002546212750061006f91906100f9565b600381905550806000806101000a81548173ffffffffffffffffffffffffffffffffffffffff021916908373ffffffffffffffffffffffffffffffffffffffff160217905550506101d1565b6000815190506100ca816101ba565b92915050565b6000602082840312156100e257600080fd5b60006100f0848285016100bb565b91505092915050565b600061010482610181565b915061010f83610181565b9250827fffffffffffffffffffffffffffffffffffffffffffffffffffffffffffffffff038211156101445761014361018b565b5b828201905092915050565b600061015a82610161565b9050919050565b600073ffffffffffffffffffffffffffffffffffffffff82169050919050565b6000819050919050565b7f4e487b7100000000000000000000000000000000000000000000000000000000600052601160045260246000fd5b6101c38161014f565b81146101ce57600080fd5b50565b610828806101e06000396000f3fe6080604052600436106100225760003560e01c8063ee1796c51461044857610443565b366104435760008060009054906101000a900473ffffffffffffffffffffffffffffffffffffffff1673ffffffffffffffffffffffffffffffffffffffff166370a08231306040518263ffffffff1660e01b815260040161008391906105ac565b60206040518083038186803b15801561009b57600080fd5b505afa1580156100af573d6000803e3d6000fd5b505050506040513d601f19601f820116820180604052508101906100d3919061051f565b11610113576040517f08c379a000000000000000000000000000000000000000000000000000000000815260040161010a906105f0565b60405180910390fd5b600060149054906101000a900460ff16610162576040517f08c379a000000000000000000000000000000000000000000000000000000000815260040161015990610610565b60405180910390fd5b60035442106101a6576040517f08c379a000000000000000000000000000000000000000000000000000000000815260040161019d90610610565b60405180910390fd5b60025442106102885760008054906101000a900473ffffffffffffffffffffffffffffffffffffffff1673ffffffffffffffffffffffffffffffffffffffff1663a9059cbb33670de0b6b3a764000034676f05b59d3b2000006102099190610672565b6102139190610641565b6040518363ffffffff1660e01b81526004016102309291906105c7565b602060405180830381600087803b15801561024a57600080fd5b505af115801561025e573d6000803e3d6000fd5b505050506040513d601f19601f8201168201806040525081019061028291906104f6565b50610441565b600154421061036b5760008054906101000a900473ffffffffffffffffffffffffffffffffffffffff1673ffffffffffffffffffffffffffffffffffffffff1663a9059cbb33670de0b6b3a7640000346801236efcbcbb3400006102ec9190610672565b6102f69190610641565b6040518363ffffffff1660e01b81526004016103139291906105c7565b602060405180830381600087803b15801561032d57600080fd5b505af1158015610341573d6000803e3d6000fd5b505050506040513d601f19601f8201168201806040525081019061036591906104f6565b50610441565b60008054906101000a900473ffffffffffffffffffffffffffffffffffffffff1673ffffffffffffffffffffffffffffffffffffffff1663a9059cbb33670de0b6b3a764000034680246ddf979766800006103c69190610672565b6103d09190610641565b6040518363ffffffff1660e01b81526004016103ed9291906105c7565b602060405180830381600087803b15801561040757600080fd5b505af115801561041b573d6000803e3d6000fd5b505050506040513d601f19601f8201168201806040525081019061043f91906104f6565b505b005b600080fd5b34801561045457600080fd5b5061046f600480360381019061046a91906104cd565b610471565b005b80600060146101000a81548160ff02191690831515021790555050565b60008135905061049d816107c4565b92915050565b6000815190506104b2816107c4565b92915050565b6000815190506104c7816107db565b92915050565b6000602082840312156104df57600080fd5b60006104ed8482850161048e565b91505092915050565b60006020828403121561050857600080fd5b6000610516848285016104a3565b91505092915050565b60006020828403121561053157600080fd5b600061053f848285016104b8565b91505092915050565b610551816106cc565b82525050565b6000610564600d83610630565b915061056f82610772565b602082019050919050565b6000610587600a83610630565b91506105928261079b565b602082019050919050565b6105a68161070a565b82525050565b60006020820190506105c16000830184610548565b92915050565b60006040820190506105dc6000830185610548565b6105e9602083018461059d565b9392505050565b6000602082019050818103600083015261060981610557565b9050919050565b600060208201905081810360008301526106298161057a565b9050919050565b600082825260208201905092915050565b600061064c8261070a565b91506106578361070a565b92508261066757610666610743565b5b828204905092915050565b600061067d8261070a565b91506106888361070a565b9250817fffffffffffffffffffffffffffffffffffffffffffffffffffffffffffffffff04831182151516156106c1576106c0610714565b5b828202905092915050565b60006106d7826106ea565b9050919050565b60008115159050919050565b600073ffffffffffffffffffffffffffffffffffffffff82169050919050565b6000819050919050565b7f4e487b7100000000000000000000000000000000000000000000000000000000600052601160045260246000fd5b7f4e487b7100000000000000000000000000000000000000000000000000000000600052601260045260246000fd5b7f4f7574206f6620746f6b656e7300000000000000000000000000000000000000600082015250565b7f49434f20636c6f73656400000000000000000000000000000000000000000000600082015250565b6107cd816106de565b81146107d857600080fd5b50565b6107e48161070a565b81146107ef57600080fd5b5056fea264697066735822122043b897cdd990f69d6c335dfa8d4efc90e52de5a1e6eb20258cfb3b2b2f4af3ea64736f6c63430008040033a264697066735822122039d8380c196fa8194c23d3c33d6a5fa15dbd26da7dbc521d498a5e3539de6c4c64736f6c63430008040033",
  "linkReferences": {},
  "deployedLinkReferences": {}
}