{
  "_format": "hh-sol-artifact-1",
  "contractName": "TTT",
  "sourceName": "contracts/tokenICO.sol",
  "abi": [
    {
      "inputs": [],
      "stateMutability": "nonpayable",
      "type": "constructor"
    },
    {
      "anonymous": false,
      "inputs": [
        {
          "indexed": true,
          "internalType": "address",
          "name": "owner",
          "type": "address"
        },
        {
          "indexed": true,
          "internalType": "address",
          "name": "spender",
          "type": "address"
        },
        {
          "indexed": false,
          "internalType": "uint256",
          "name": "value",
          "type": "uint256"
        }
      ],
      "name": "Approval",
      "type": "event"
    },
    {
      "anonymous": false,
      "inputs": [
        {
          "indexed": true,
          "internalType": "address",
          "name": "previousOwner",
          "type": "address"
        },
        {
          "indexed": true,
          "internalType": "address",
          "name": "newOwner",
          "type": "address"
        }
      ],
      "name": "OwnershipTransferred",
      "type": "event"
    },
    {
      "anonymous": false,
      "inputs": [
        {
          "indexed": true,
          "internalType": "address",
          "name": "from",
          "type": "address"
        },
        {
          "indexed": true,
          "internalType": "address",
          "name": "to",
          "type": "address"
        },
        {
          "indexed": false,
          "internalType": "uint256",
          "name": "value",
          "type": "uint256"
        }
      ],
      "name": "Transfer",
      "type": "event"
    },
    {
      "inputs": [],
      "name": "ICOAddress",
      "outputs": [
        {
          "internalType": "address",
          "name": "",
          "type": "address"
        }
      ],
      "stateMutability": "view",
      "type": "function"
    },
    {
      "inputs": [
        {
          "internalType": "address",
          "name": "owner",
          "type": "address"
        },
        {
          "internalType": "address",
          "name": "spender",
          "type": "address"
        }
      ],
      "name": "allowance",
      "outputs": [
        {
          "internalType": "uint256",
          "name": "",
          "type": "uint256"
        }
      ],
      "stateMutability": "view",
      "type": "function"
    },
    {
      "inputs": [
        {
          "internalType": "address",
          "name": "spender",
          "type": "address"
        },
        {
          "internalType": "uint256",
          "name": "amount",
          "type": "uint256"
        }
      ],
      "name": "approve",
      "outputs": [
        {
          "internalType": "bool",
          "name": "",
          "type": "bool"
        }
      ],
      "stateMutability": "nonpayable",
      "type": "function"
    },
    {
      "inputs": [
        {
          "internalType": "address",
          "name": "account",
          "type": "address"
        }
      ],
      "name": "balanceOf",
      "outputs": [
        {
          "internalType": "uint256",
          "name": "",
          "type": "uint256"
        }
      ],
      "stateMutability": "view",
      "type": "function"
    },
    {
      "inputs": [
        {
          "internalType": "uint256",
          "name": "supply",
          "type": "uint256"
        }
      ],
      "name": "createICO",
      "outputs": [],
      "stateMutability": "nonpayable",
      "type": "function"
    },
    {
      "inputs": [],
      "name": "decimals",
      "outputs": [
        {
          "internalType": "uint8",
          "name": "",
          "type": "uint8"
        }
      ],
      "stateMutability": "view",
      "type": "function"
    },
    {
      "inputs": [
        {
          "internalType": "address",
          "name": "spender",
          "type": "address"
        },
        {
          "internalType": "uint256",
          "name": "subtractedValue",
          "type": "uint256"
        }
      ],
      "name": "decreaseAllowance",
      "outputs": [
        {
          "internalType": "bool",
          "name": "",
          "type": "bool"
        }
      ],
      "stateMutability": "nonpayable",
      "type": "function"
    },
    {
      "inputs": [
        {
          "internalType": "address",
          "name": "spender",
          "type": "address"
        },
        {
          "internalType": "uint256",
          "name": "addedValue",
          "type": "uint256"
        }
      ],
      "name": "increaseAllowance",
      "outputs": [
        {
          "internalType": "bool",
          "name": "",
          "type": "bool"
        }
      ],
      "stateMutability": "nonpayable",
      "type": "function"
    },
    {
      "inputs": [],
      "name": "name",
      "outputs": [
        {
          "internalType": "string",
          "name": "",
          "type": "string"
        }
      ],
      "stateMutability": "view",
      "type": "function"
    },
    {
      "inputs": [],
      "name": "owner",
      "outputs": [
        {
          "internalType": "address",
          "name": "",
          "type": "address"
        }
      ],
      "stateMutability": "view",
      "type": "function"
    },
    {
      "inputs": [],
      "name": "renounceOwnership",
      "outputs": [],
      "stateMutability": "nonpayable",
      "type": "function"
    },
    {
      "inputs": [
        {
          "internalType": "bool",
          "name": "state",
          "type": "bool"
        }
      ],
      "name": "setICOState",
      "outputs": [],
      "stateMutability": "nonpayable",
      "type": "function"
    },
    {
      "inputs": [],
      "name": "symbol",
      "outputs": [
        {
          "internalType": "string",
          "name": "",
          "type": "string"
        }
      ],
      "stateMutability": "view",
      "type": "function"
    },
    {
      "inputs": [],
      "name": "totalSupply",
      "outputs": [
        {
          "internalType": "uint256",
          "name": "",
          "type": "uint256"
        }
      ],
      "stateMutability": "view",
      "type": "function"
    },
    {
      "inputs": [
        {
          "internalType": "address",
          "name": "recipient",
          "type": "address"
        },
        {
          "internalType": "uint256",
          "name": "amount",
          "type": "uint256"
        }
      ],
      "name": "transfer",
      "outputs": [
        {
          "internalType": "bool",
          "name": "",
          "type": "bool"
        }
      ],
      "stateMutability": "nonpayable",
      "type": "function"
    },
    {
      "inputs": [
        {
          "internalType": "address",
          "name": "sender",
          "type": "address"
        },
        {
          "internalType": "address",
          "name": "recipient",
          "type": "address"
        },
        {
          "internalType": "uint256",
          "name": "amount",
          "type": "uint256"
        }
      ],
      "name": "transferFrom",
      "outputs": [
        {
          "internalType": "bool",
          "name": "",
          "type": "bool"
        }
      ],
      "stateMutability": "nonpayable",
      "type": "function"
    },
    {
      "inputs": [
        {
          "internalType": "address",
          "name": "newOwner",
          "type": "address"
        }
      ],
      "name": "transferOwnership",
      "outputs": [],
      "stateMutability": "nonpayable",
      "type": "function"
    },
    {
      "inputs": [
        {
          "internalType": "address",
          "name": "member",
          "type": "address"
        }
      ],
      "name": "whitelist",
      "outputs": [],
      "stateMutability": "nonpayable",
      "type": "function"
    }
  ],
  "bytecode": "0x60806040523480156200001157600080fd5b506040518060400160405280601581526020017f54696d656c6f636b5472616e73666572546f6b656e00000000000000000000008152506040518060400160405280600381526020017f5454540000000000000000000000000000000000000000000000000000000000815250816003908051906020019062000096929190620003e7565b508060049080519060200190620000af929190620003e7565b505050620000d2620000c66200018d60201b60201c565b6200019560201b60201c565b62000120620000e66200018d60201b60201c565b620000f66200025b60201b60201c565b600a620001049190620005d7565b620f424062000114919062000714565b6200026460201b60201c565b600160066000620001366200018d60201b60201c565b73ffffffffffffffffffffffffffffffffffffffff1673ffffffffffffffffffffffffffffffffffffffff16815260200190815260200160002060006101000a81548160ff02191690831515021790555062000856565b600033905090565b6000600560009054906101000a900473ffffffffffffffffffffffffffffffffffffffff16905081600560006101000a81548173ffffffffffffffffffffffffffffffffffffffff021916908373ffffffffffffffffffffffffffffffffffffffff1602179055508173ffffffffffffffffffffffffffffffffffffffff168173ffffffffffffffffffffffffffffffffffffffff167f8be0079c531659141344cd1fd0a4f28419497f9722a3daafe3b4186f6b6457e060405160405180910390a35050565b60006012905090565b600073ffffffffffffffffffffffffffffffffffffffff168273ffffffffffffffffffffffffffffffffffffffff161415620002d7576040517f08c379a0000000000000000000000000000000000000000000000000000000008152600401620002ce90620004cf565b60405180910390fd5b620002eb60008383620003dd60201b60201c565b8060026000828254620002ff91906200051f565b92505081905550806000808473ffffffffffffffffffffffffffffffffffffffff1673ffffffffffffffffffffffffffffffffffffffff16815260200190815260200160002060008282546200035691906200051f565b925050819055508173ffffffffffffffffffffffffffffffffffffffff16600073ffffffffffffffffffffffffffffffffffffffff167fddf252ad1be2c89b69c2b068fc378daa952ba7f163c4a11628f55a4df523b3ef83604051620003bd9190620004f1565b60405180910390a3620003d960008383620003e260201b60201c565b5050565b505050565b505050565b828054620003f5906200078c565b90600052602060002090601f01602090048101928262000419576000855562000465565b82601f106200043457805160ff191683800117855562000465565b8280016001018555821562000465579182015b828111156200046457825182559160200191906001019062000447565b5b50905062000474919062000478565b5090565b5b808211156200049357600081600090555060010162000479565b5090565b6000620004a6601f836200050e565b9150620004b3826200082d565b602082019050919050565b620004c98162000775565b82525050565b60006020820190508181036000830152620004ea8162000497565b9050919050565b6000602082019050620005086000830184620004be565b92915050565b600082825260208201905092915050565b60006200052c8262000775565b9150620005398362000775565b9250827fffffffffffffffffffffffffffffffffffffffffffffffffffffffffffffffff03821115620005715762000570620007c2565b5b828201905092915050565b6000808291508390505b6001851115620005ce57808604811115620005a657620005a5620007c2565b5b6001851615620005b65780820291505b8081029050620005c68562000820565b945062000586565b94509492505050565b6000620005e48262000775565b9150620005f1836200077f565b9250620006207fffffffffffffffffffffffffffffffffffffffffffffffffffffffffffffffff848462000628565b905092915050565b6000826200063a57600190506200070d565b816200064a57600090506200070d565b81600181146200066357600281146200066e57620006a4565b60019150506200070d565b60ff841115620006835762000682620007c2565b5b8360020a9150848211156200069d576200069c620007c2565b5b506200070d565b5060208310610133831016604e8410600b8410161715620006de5782820a905083811115620006d857620006d7620007c2565b5b6200070d565b620006ed84848460016200057c565b92509050818404811115620007075762000706620007c2565b5b81810290505b9392505050565b6000620007218262000775565b91506200072e8362000775565b9250817fffffffffffffffffffffffffffffffffffffffffffffffffffffffffffffffff04831182151516156200076a5762000769620007c2565b5b828202905092915050565b6000819050919050565b600060ff82169050919050565b60006002820490506001821680620007a557607f821691505b60208210811415620007bc57620007bb620007f1565b5b50919050565b7f4e487b7100000000000000000000000000000000000000000000000000000000600052601160045260246000fd5b7f4e487b7100000000000000000000000000000000000000000000000000000000600052602260045260246000fd5b60008160011c9050919050565b7f45524332303a206d696e7420746f20746865207a65726f206164647265737300600082015250565b612abb80620008666000396000f3fe60806040523480156200001157600080fd5b5060043610620001305760003560e01c80638da5cb5b11620000b1578063a9059cbb116200007b578063a9059cbb1462000339578063d2f1f189146200036f578063dd62ed3e1462000391578063ee1796c514620003c7578063f2fde38b14620003e75762000130565b80638da5cb5b146200029f57806395d89b4114620002c15780639b19251a14620002e3578063a457c2d714620003035762000130565b806323b872dd11620000ff57806323b872dd14620001cf578063313ce567146200020557806339509351146200022757806370a08231146200025d578063715018a614620002935762000130565b806306fdde031462000135578063095ea7b314620001575780630c5a3da7146200018d57806318160ddd14620001ad575b600080fd5b6200013f62000407565b6040516200014e9190620019d7565b60405180910390f35b6200017560048036038101906200016f9190620016cd565b620004a1565b604051620001849190620019ba565b60405180910390f35b620001ab6004803603810190620001a5919062001766565b620004c3565b005b620001b7620006fd565b604051620001c6919062001b4f565b60405180910390f35b620001ed6004803603810190620001e7919062001677565b62000707565b604051620001fc9190620019ba565b60405180910390f35b6200020f6200080a565b6040516200021e919062001b6c565b60405180910390f35b6200024560048036038101906200023f9190620016cd565b62000813565b604051620002549190620019ba565b60405180910390f35b6200027b60048036038101906200027591906200160a565b620008c7565b6040516200028a919062001b4f565b60405180910390f35b6200029d6200090f565b005b620002a9620009a0565b604051620002b891906200199d565b60405180910390f35b620002cb620009ca565b604051620002da9190620019d7565b60405180910390f35b620003016004803603810190620002fb91906200160a565b62000a64565b005b6200032160048036038101906200031b9190620016cd565b62000b42565b604051620003309190620019ba565b60405180910390f35b620003576004803603810190620003519190620016cd565b62000c36565b604051620003669190620019ba565b60405180910390f35b6200037962000d9b565b6040516200038891906200199d565b60405180910390f35b620003af6004803603810190620003a9919062001636565b62000dc1565b604051620003be919062001b4f565b60405180910390f35b620003e56004803603810190620003df91906200170e565b62000e48565b005b620004056004803603810190620003ff91906200160a565b62000f5f565b005b606060038054620004189062001c8f565b80601f0160208091040260200160405190810160405280929190818152602001828054620004469062001c8f565b8015620004975780601f106200046b5761010080835404028352916020019162000497565b820191906000526020600020905b8154815290600101906020018083116200047957829003601f168201915b5050505050905090565b6000620004b9620004b162001063565b84846200106b565b6001905092915050565b620004cd62001063565b73ffffffffffffffffffffffffffffffffffffffff16620004ed620009a0565b73ffffffffffffffffffffffffffffffffffffffff161462000546576040517f08c379a00000000000000000000000000000000000000000000000000000000081526004016200053d9062001aa5565b60405180910390fd5b306040516200055590620015a0565b6200056191906200199d565b604051809103906000f0801580156200057e573d6000803e3d6000fd5b50600760006101000a81548173ffffffffffffffffffffffffffffffffffffffff021916908373ffffffffffffffffffffffffffffffffffffffff160217905550620005ed600760009054906101000a900473ffffffffffffffffffffffffffffffffffffffff168262000c36565b50600760009054906101000a900473ffffffffffffffffffffffffffffffffffffffff1673ffffffffffffffffffffffffffffffffffffffff1663ee1796c560016040518263ffffffff1660e01b81526004016200064c9190620019ba565b600060405180830381600087803b1580156200066757600080fd5b505af11580156200067c573d6000803e3d6000fd5b50505050600160066000600760009054906101000a900473ffffffffffffffffffffffffffffffffffffffff1673ffffffffffffffffffffffffffffffffffffffff1673ffffffffffffffffffffffffffffffffffffffff16815260200190815260200160002060006101000a81548160ff02191690831515021790555050565b6000600254905090565b6000620007168484846200123e565b6000600160008673ffffffffffffffffffffffffffffffffffffffff1673ffffffffffffffffffffffffffffffffffffffff16815260200190815260200160002060006200076362001063565b73ffffffffffffffffffffffffffffffffffffffff1673ffffffffffffffffffffffffffffffffffffffff16815260200190815260200160002054905082811015620007e6576040517f08c379a0000000000000000000000000000000000000000000000000000000008152600401620007dd9062001a83565b60405180910390fd5b620007fe85620007f562001063565b8584036200106b565b60019150509392505050565b60006012905090565b6000620008bd6200082362001063565b8484600160006200083362001063565b73ffffffffffffffffffffffffffffffffffffffff1673ffffffffffffffffffffffffffffffffffffffff16815260200190815260200160002060008873ffffffffffffffffffffffffffffffffffffffff1673ffffffffffffffffffffffffffffffffffffffff16815260200190815260200160002054620008b7919062001ba5565b6200106b565b6001905092915050565b60008060008373ffffffffffffffffffffffffffffffffffffffff1673ffffffffffffffffffffffffffffffffffffffff168152602001908152602001600020549050919050565b6200091962001063565b73ffffffffffffffffffffffffffffffffffffffff1662000939620009a0565b73ffffffffffffffffffffffffffffffffffffffff161462000992576040517f08c379a0000000000000000000000000000000000000000000000000000000008152600401620009899062001aa5565b60405180910390fd5b6200099e6000620014d0565b565b6000600560009054906101000a900473ffffffffffffffffffffffffffffffffffffffff16905090565b606060048054620009db9062001c8f565b80601f016020809104026020016040519081016040528092919081815260200182805462000a099062001c8f565b801562000a5a5780601f1062000a2e5761010080835404028352916020019162000a5a565b820191906000526020600020905b81548152906001019060200180831162000a3c57829003601f168201915b5050505050905090565b62000a6e62001063565b73ffffffffffffffffffffffffffffffffffffffff1662000a8e620009a0565b73ffffffffffffffffffffffffffffffffffffffff161462000ae7576040517f08c379a000000000000000000000000000000000000000000000000000000000815260040162000ade9062001aa5565b60405180910390fd5b6001600660008373ffffffffffffffffffffffffffffffffffffffff1673ffffffffffffffffffffffffffffffffffffffff16815260200190815260200160002060006101000a81548160ff02191690831515021790555050565b6000806001600062000b5362001063565b73ffffffffffffffffffffffffffffffffffffffff1673ffffffffffffffffffffffffffffffffffffffff16815260200190815260200160002060008573ffffffffffffffffffffffffffffffffffffffff1673ffffffffffffffffffffffffffffffffffffffff1681526020019081526020016000205490508281101562000c13576040517f08c379a000000000000000000000000000000000000000000000000000000000815260040162000c0a9062001b2d565b60405180910390fd5b62000c2b62000c2162001063565b858584036200106b565b600191505092915050565b6000600760009054906101000a900473ffffffffffffffffffffffffffffffffffffffff1673ffffffffffffffffffffffffffffffffffffffff1663f098efb36040518163ffffffff1660e01b815260040160206040518083038186803b15801562000ca157600080fd5b505afa15801562000cb6573d6000803e3d6000fd5b505050506040513d601f19601f8201168201806040525081019062000cdc91906200173a565b1562000d7b576006600062000cf062001063565b73ffffffffffffffffffffffffffffffffffffffff1673ffffffffffffffffffffffffffffffffffffffff16815260200190815260200160002060009054906101000a900460ff1662000d7a576040517f08c379a000000000000000000000000000000000000000000000000000000000815260040162000d719062001b0b565b60405180910390fd5b5b62000d9162000d8962001063565b84846200123e565b6001905092915050565b600760009054906101000a900473ffffffffffffffffffffffffffffffffffffffff1681565b6000600160008473ffffffffffffffffffffffffffffffffffffffff1673ffffffffffffffffffffffffffffffffffffffff16815260200190815260200160002060008373ffffffffffffffffffffffffffffffffffffffff1673ffffffffffffffffffffffffffffffffffffffff16815260200190815260200160002054905092915050565b62000e5262001063565b73ffffffffffffffffffffffffffffffffffffffff1662000e72620009a0565b73ffffffffffffffffffffffffffffffffffffffff161462000ecb576040517f08c379a000000000000000000000000000000000000000000000000000000000815260040162000ec29062001aa5565b60405180910390fd5b600760009054906101000a900473ffffffffffffffffffffffffffffffffffffffff1673ffffffffffffffffffffffffffffffffffffffff1663ee1796c5826040518263ffffffff1660e01b815260040162000f289190620019ba565b600060405180830381600087803b15801562000f4357600080fd5b505af115801562000f58573d6000803e3d6000fd5b5050505050565b62000f6962001063565b73ffffffffffffffffffffffffffffffffffffffff1662000f89620009a0565b73ffffffffffffffffffffffffffffffffffffffff161462000fe2576040517f08c379a000000000000000000000000000000000000000000000000000000000815260040162000fd99062001aa5565b60405180910390fd5b600073ffffffffffffffffffffffffffffffffffffffff168173ffffffffffffffffffffffffffffffffffffffff16141562001055576040517f08c379a00000000000000000000000000000000000000000000000000000000081526004016200104c9062001a1d565b60405180910390fd5b6200106081620014d0565b50565b600033905090565b600073ffffffffffffffffffffffffffffffffffffffff168373ffffffffffffffffffffffffffffffffffffffff161415620010de576040517f08c379a0000000000000000000000000000000000000000000000000000000008152600401620010d59062001ae9565b60405180910390fd5b600073ffffffffffffffffffffffffffffffffffffffff168273ffffffffffffffffffffffffffffffffffffffff16141562001151576040517f08c379a0000000000000000000000000000000000000000000000000000000008152600401620011489062001a3f565b60405180910390fd5b80600160008573ffffffffffffffffffffffffffffffffffffffff1673ffffffffffffffffffffffffffffffffffffffff16815260200190815260200160002060008473ffffffffffffffffffffffffffffffffffffffff1673ffffffffffffffffffffffffffffffffffffffff168152602001908152602001600020819055508173ffffffffffffffffffffffffffffffffffffffff168373ffffffffffffffffffffffffffffffffffffffff167f8c5be1e5ebec7d5bd14f71427d1e84f3dd0314c0f7b2291e5b200ac8c7c3b9258360405162001231919062001b4f565b60405180910390a3505050565b600073ffffffffffffffffffffffffffffffffffffffff168373ffffffffffffffffffffffffffffffffffffffff161415620012b1576040517f08c379a0000000000000000000000000000000000000000000000000000000008152600401620012a89062001ac7565b60405180910390fd5b600073ffffffffffffffffffffffffffffffffffffffff168273ffffffffffffffffffffffffffffffffffffffff16141562001324576040517f08c379a00000000000000000000000000000000000000000000000000000000081526004016200131b90620019fb565b60405180910390fd5b6200133183838362001596565b60008060008573ffffffffffffffffffffffffffffffffffffffff1673ffffffffffffffffffffffffffffffffffffffff16815260200190815260200160002054905081811015620013ba576040517f08c379a0000000000000000000000000000000000000000000000000000000008152600401620013b19062001a61565b60405180910390fd5b8181036000808673ffffffffffffffffffffffffffffffffffffffff1673ffffffffffffffffffffffffffffffffffffffff16815260200190815260200160002081905550816000808573ffffffffffffffffffffffffffffffffffffffff1673ffffffffffffffffffffffffffffffffffffffff16815260200190815260200160002060008282546200144f919062001ba5565b925050819055508273ffffffffffffffffffffffffffffffffffffffff168473ffffffffffffffffffffffffffffffffffffffff167fddf252ad1be2c89b69c2b068fc378daa952ba7f163c4a11628f55a4df523b3ef84604051620014b5919062001b4f565b60405180910390a3620014ca8484846200159b565b50505050565b6000600560009054906101000a900473ffffffffffffffffffffffffffffffffffffffff16905081600560006101000a81548173ffffffffffffffffffffffffffffffffffffffff021916908373ffffffffffffffffffffffffffffffffffffffff1602179055508173ffffffffffffffffffffffffffffffffffffffff168173ffffffffffffffffffffffffffffffffffffffff167f8be0079c531659141344cd1fd0a4f28419497f9722a3daafe3b4186f6b6457e060405160405180910390a35050565b505050565b505050565b610a13806200207383390190565b600081359050620015bf8162002024565b92915050565b600081359050620015d6816200203e565b92915050565b600081519050620015ed816200203e565b92915050565b600081359050620016048162002058565b92915050565b6000602082840312156200161d57600080fd5b60006200162d84828501620015ae565b91505092915050565b600080604083850312156200164a57600080fd5b60006200165a85828601620015ae565b92505060206200166d85828601620015ae565b9150509250929050565b6000806000606084860312156200168d57600080fd5b60006200169d86828701620015ae565b9350506020620016b086828701620015ae565b9250506040620016c386828701620015f3565b9150509250925092565b60008060408385031215620016e157600080fd5b6000620016f185828601620015ae565b92505060206200170485828601620015f3565b9150509250929050565b6000602082840312156200172157600080fd5b60006200173184828501620015c5565b91505092915050565b6000602082840312156200174d57600080fd5b60006200175d84828501620015dc565b91505092915050565b6000602082840312156200177957600080fd5b60006200178984828501620015f3565b91505092915050565b6200179d8162001c02565b82525050565b620017ae8162001c16565b82525050565b6000620017c18262001b89565b620017cd818562001b94565b9350620017df81856020860162001c59565b620017ea8162001d23565b840191505092915050565b60006200180460238362001b94565b9150620018118262001d34565b604082019050919050565b60006200182b60268362001b94565b9150620018388262001d83565b604082019050919050565b60006200185260228362001b94565b91506200185f8262001dd2565b604082019050919050565b60006200187960268362001b94565b9150620018868262001e21565b604082019050919050565b6000620018a060288362001b94565b9150620018ad8262001e70565b604082019050919050565b6000620018c760208362001b94565b9150620018d48262001ebf565b602082019050919050565b6000620018ee60258362001b94565b9150620018fb8262001ee8565b604082019050919050565b60006200191560248362001b94565b9150620019228262001f37565b604082019050919050565b60006200193c602f8362001b94565b9150620019498262001f86565b604082019050919050565b60006200196360258362001b94565b9150620019708262001fd5565b604082019050919050565b620019868162001c42565b82525050565b620019978162001c4c565b82525050565b6000602082019050620019b4600083018462001792565b92915050565b6000602082019050620019d16000830184620017a3565b92915050565b60006020820190508181036000830152620019f38184620017b4565b905092915050565b6000602082019050818103600083015262001a1681620017f5565b9050919050565b6000602082019050818103600083015262001a38816200181c565b9050919050565b6000602082019050818103600083015262001a5a8162001843565b9050919050565b6000602082019050818103600083015262001a7c816200186a565b9050919050565b6000602082019050818103600083015262001a9e8162001891565b9050919050565b6000602082019050818103600083015262001ac081620018b8565b9050919050565b6000602082019050818103600083015262001ae281620018df565b9050919050565b6000602082019050818103600083015262001b048162001906565b9050919050565b6000602082019050818103600083015262001b26816200192d565b9050919050565b6000602082019050818103600083015262001b488162001954565b9050919050565b600060208201905062001b6660008301846200197b565b92915050565b600060208201905062001b8360008301846200198c565b92915050565b600081519050919050565b600082825260208201905092915050565b600062001bb28262001c42565b915062001bbf8362001c42565b9250827fffffffffffffffffffffffffffffffffffffffffffffffffffffffffffffffff0382111562001bf75762001bf662001cc5565b5b828201905092915050565b600062001c0f8262001c22565b9050919050565b60008115159050919050565b600073ffffffffffffffffffffffffffffffffffffffff82169050919050565b6000819050919050565b600060ff82169050919050565b60005b8381101562001c7957808201518184015260208101905062001c5c565b8381111562001c89576000848401525b50505050565b6000600282049050600182168062001ca857607f821691505b6020821081141562001cbf5762001cbe62001cf4565b5b50919050565b7f4e487b7100000000000000000000000000000000000000000000000000000000600052601160045260246000fd5b7f4e487b7100000000000000000000000000000000000000000000000000000000600052602260045260246000fd5b6000601f19601f8301169050919050565b7f45524332303a207472616e7366657220746f20746865207a65726f206164647260008201527f6573730000000000000000000000000000000000000000000000000000000000602082015250565b7f4f776e61626c653a206e6577206f776e657220697320746865207a65726f206160008201527f6464726573730000000000000000000000000000000000000000000000000000602082015250565b7f45524332303a20617070726f766520746f20746865207a65726f20616464726560008201527f7373000000000000000000000000000000000000000000000000000000000000602082015250565b7f45524332303a207472616e7366657220616d6f756e742065786365656473206260008201527f616c616e63650000000000000000000000000000000000000000000000000000602082015250565b7f45524332303a207472616e7366657220616d6f756e742065786365656473206160008201527f6c6c6f77616e6365000000000000000000000000000000000000000000000000602082015250565b7f4f776e61626c653a2063616c6c6572206973206e6f7420746865206f776e6572600082015250565b7f45524332303a207472616e736665722066726f6d20746865207a65726f20616460008201527f6472657373000000000000000000000000000000000000000000000000000000602082015250565b7f45524332303a20617070726f76652066726f6d20746865207a65726f2061646460008201527f7265737300000000000000000000000000000000000000000000000000000000602082015250565b7f4e6f7420617574686f72697a656420746f207472616e7366657220756e74696c60008201527f2074686520656e64206f662049434f0000000000000000000000000000000000602082015250565b7f45524332303a2064656372656173656420616c6c6f77616e63652062656c6f7760008201527f207a65726f000000000000000000000000000000000000000000000000000000602082015250565b6200202f8162001c02565b81146200203b57600080fd5b50565b620020498162001c16565b81146200205557600080fd5b50565b620020638162001c42565b81146200206f57600080fd5b5056fe608060405234801561001057600080fd5b5060405162000a1338038062000a13833981810160405281019061003491906100e8565b6203f480426100439190610111565b60018190555060015462278d004261005b9190610111565b6100659190610111565b600281905550600254621275004261007d9190610111565b6100879190610111565b600381905550806000806101000a81548173ffffffffffffffffffffffffffffffffffffffff021916908373ffffffffffffffffffffffffffffffffffffffff160217905550506101e9565b6000815190506100e2816101d2565b92915050565b6000602082840312156100fa57600080fd5b6000610108848285016100d3565b91505092915050565b600061011c82610199565b915061012783610199565b9250827fffffffffffffffffffffffffffffffffffffffffffffffffffffffffffffffff0382111561015c5761015b6101a3565b5b828201905092915050565b600061017282610179565b9050919050565b600073ffffffffffffffffffffffffffffffffffffffff82169050919050565b6000819050919050565b7f4e487b7100000000000000000000000000000000000000000000000000000000600052601160045260246000fd5b6101db81610167565b81146101e657600080fd5b50565b61081a80620001f96000396000f3fe6080604052600436106100225760003560e01c8063ee1796c51461043a57610435565b366104355760008060009054906101000a900473ffffffffffffffffffffffffffffffffffffffff1673ffffffffffffffffffffffffffffffffffffffff166370a08231306040518263ffffffff1660e01b8152600401610083919061059e565b60206040518083038186803b15801561009b57600080fd5b505afa1580156100af573d6000803e3d6000fd5b505050506040513d601f19601f820116820180604052508101906100d39190610511565b11610113576040517f08c379a000000000000000000000000000000000000000000000000000000000815260040161010a906105e2565b60405180910390fd5b600060149054906101000a900460ff16610162576040517f08c379a000000000000000000000000000000000000000000000000000000000815260040161015990610602565b60405180910390fd5b60035442106101a6576040517f08c379a000000000000000000000000000000000000000000000000000000000815260040161019d90610602565b60405180910390fd5b60025442106102845760008054906101000a900473ffffffffffffffffffffffffffffffffffffffff1673ffffffffffffffffffffffffffffffffffffffff1663a9059cbb33670de0b6b3a764000034600860ff166102059190610664565b61020f9190610633565b6040518363ffffffff1660e01b815260040161022c9291906105b9565b602060405180830381600087803b15801561024657600080fd5b505af115801561025a573d6000803e3d6000fd5b505050506040513d601f19601f8201168201806040525081019061027e91906104e8565b50610433565b60015442106103625760008054906101000a900473ffffffffffffffffffffffffffffffffffffffff1673ffffffffffffffffffffffffffffffffffffffff1663a9059cbb33670de0b6b3a764000034601560ff166102e39190610664565b6102ed9190610633565b6040518363ffffffff1660e01b815260040161030a9291906105b9565b602060405180830381600087803b15801561032457600080fd5b505af1158015610338573d6000803e3d6000fd5b505050506040513d601f19601f8201168201806040525081019061035c91906104e8565b50610433565b60008054906101000a900473ffffffffffffffffffffffffffffffffffffffff1673ffffffffffffffffffffffffffffffffffffffff1663a9059cbb33670de0b6b3a764000034602a60ff166103b89190610664565b6103c29190610633565b6040518363ffffffff1660e01b81526004016103df9291906105b9565b602060405180830381600087803b1580156103f957600080fd5b505af115801561040d573d6000803e3d6000fd5b505050506040513d601f19601f8201168201806040525081019061043191906104e8565b505b005b600080fd5b34801561044657600080fd5b50610461600480360381019061045c91906104bf565b610463565b005b80600060146101000a81548160ff02191690831515021790555050565b60008135905061048f816107b6565b92915050565b6000815190506104a4816107b6565b92915050565b6000815190506104b9816107cd565b92915050565b6000602082840312156104d157600080fd5b60006104df84828501610480565b91505092915050565b6000602082840312156104fa57600080fd5b600061050884828501610495565b91505092915050565b60006020828403121561052357600080fd5b6000610531848285016104aa565b91505092915050565b610543816106be565b82525050565b6000610556600d83610622565b915061056182610764565b602082019050919050565b6000610579600a83610622565b91506105848261078d565b602082019050919050565b610598816106fc565b82525050565b60006020820190506105b3600083018461053a565b92915050565b60006040820190506105ce600083018561053a565b6105db602083018461058f565b9392505050565b600060208201905081810360008301526105fb81610549565b9050919050565b6000602082019050818103600083015261061b8161056c565b9050919050565b600082825260208201905092915050565b600061063e826106fc565b9150610649836106fc565b92508261065957610658610735565b5b828204905092915050565b600061066f826106fc565b915061067a836106fc565b9250817fffffffffffffffffffffffffffffffffffffffffffffffffffffffffffffffff04831182151516156106b3576106b2610706565b5b828202905092915050565b60006106c9826106dc565b9050919050565b60008115159050919050565b600073ffffffffffffffffffffffffffffffffffffffff82169050919050565b6000819050919050565b7f4e487b7100000000000000000000000000000000000000000000000000000000600052601160045260246000fd5b7f4e487b7100000000000000000000000000000000000000000000000000000000600052601260045260246000fd5b7f4f7574206f6620746f6b656e7300000000000000000000000000000000000000600082015250565b7f49434f20636c6f73656400000000000000000000000000000000000000000000600082015250565b6107bf816106d0565b81146107ca57600080fd5b50565b6107d6816106fc565b81146107e157600080fd5b5056fea26469706673582212203a33aa3f20da8bee3e84735390cb485a279b448a84fa2fc26a3c432489aeea3064736f6c63430008040033a2646970667358221220e853243220e52e06146f835b83f761037e44fde47c0a7b4d5103a56b19c3349b64736f6c63430008040033",
  "linkReferences": {},
  "deployedLinkReferences": {}
}